{
  "_format": "hh-sol-artifact-1",
  "contractName": "DBToken",
  "sourceName": "contracts/DBToken.sol",
  "abi": [
    {
      "inputs": [
        {
          "internalType": "string",
          "name": "_tokenName",
          "type": "string"
        },
        {
          "internalType": "string",
          "name": "_tokenSymbol",
          "type": "string"
        },
        {
          "internalType": "uint256",
          "name": "_initialSupply",
          "type": "uint256"
        }
      ],
      "stateMutability": "nonpayable",
      "type": "constructor"
    },
    {
      "anonymous": false,
      "inputs": [
        {
          "indexed": true,
          "internalType": "address",
          "name": "owner",
          "type": "address"
        },
        {
          "indexed": true,
          "internalType": "address",
          "name": "spender",
          "type": "address"
        },
        {
          "indexed": false,
          "internalType": "uint256",
          "name": "value",
          "type": "uint256"
        }
      ],
      "name": "Approval",
      "type": "event"
    },
    {
      "anonymous": false,
      "inputs": [
        {
          "indexed": true,
          "internalType": "address",
          "name": "previousOwner",
          "type": "address"
        },
        {
          "indexed": true,
          "internalType": "address",
          "name": "newOwner",
          "type": "address"
        }
      ],
      "name": "OwnershipTransferred",
      "type": "event"
    },
    {
      "anonymous": false,
      "inputs": [
        {
          "indexed": true,
          "internalType": "address",
          "name": "from",
          "type": "address"
        },
        {
          "indexed": true,
          "internalType": "address",
          "name": "to",
          "type": "address"
        },
        {
          "indexed": false,
          "internalType": "uint256",
          "name": "value",
          "type": "uint256"
        }
      ],
      "name": "Transfer",
      "type": "event"
    },
    {
      "inputs": [
        {
          "internalType": "address",
          "name": "addAddress",
          "type": "address"
        }
      ],
      "name": "addToWhitelist",
      "outputs": [],
      "stateMutability": "nonpayable",
      "type": "function"
    },
    {
      "inputs": [
        {
          "internalType": "address",
          "name": "owner",
          "type": "address"
        },
        {
          "internalType": "address",
          "name": "spender",
          "type": "address"
        }
      ],
      "name": "allowance",
      "outputs": [
        {
          "internalType": "uint256",
          "name": "",
          "type": "uint256"
        }
      ],
      "stateMutability": "view",
      "type": "function"
    },
    {
      "inputs": [
        {
          "internalType": "address",
          "name": "spender",
          "type": "address"
        },
        {
          "internalType": "uint256",
          "name": "amount",
          "type": "uint256"
        }
      ],
      "name": "approve",
      "outputs": [
        {
          "internalType": "bool",
          "name": "",
          "type": "bool"
        }
      ],
      "stateMutability": "nonpayable",
      "type": "function"
    },
    {
      "inputs": [
        {
          "internalType": "address",
          "name": "account",
          "type": "address"
        }
      ],
      "name": "balanceOf",
      "outputs": [
        {
          "internalType": "uint256",
          "name": "",
          "type": "uint256"
        }
      ],
      "stateMutability": "view",
      "type": "function"
    },
    {
      "inputs": [],
      "name": "decimals",
      "outputs": [
        {
          "internalType": "uint8",
          "name": "",
          "type": "uint8"
        }
      ],
      "stateMutability": "view",
      "type": "function"
    },
    {
      "inputs": [
        {
          "internalType": "address",
          "name": "spender",
          "type": "address"
        },
        {
          "internalType": "uint256",
          "name": "subtractedValue",
          "type": "uint256"
        }
      ],
      "name": "decreaseAllowance",
      "outputs": [
        {
          "internalType": "bool",
          "name": "",
          "type": "bool"
        }
      ],
      "stateMutability": "nonpayable",
      "type": "function"
    },
    {
      "inputs": [
        {
          "internalType": "address",
          "name": "",
          "type": "address"
        }
      ],
      "name": "generalWhitelist",
      "outputs": [
        {
          "internalType": "bool",
          "name": "",
          "type": "bool"
        }
      ],
      "stateMutability": "view",
      "type": "function"
    },
    {
      "inputs": [
        {
          "internalType": "address",
          "name": "spender",
          "type": "address"
        },
        {
          "internalType": "uint256",
          "name": "addedValue",
          "type": "uint256"
        }
      ],
      "name": "increaseAllowance",
      "outputs": [
        {
          "internalType": "bool",
          "name": "",
          "type": "bool"
        }
      ],
      "stateMutability": "nonpayable",
      "type": "function"
    },
    {
      "inputs": [],
      "name": "name",
      "outputs": [
        {
          "internalType": "string",
          "name": "",
          "type": "string"
        }
      ],
      "stateMutability": "view",
      "type": "function"
    },
    {
      "inputs": [],
      "name": "owner",
      "outputs": [
        {
          "internalType": "address",
          "name": "",
          "type": "address"
        }
      ],
      "stateMutability": "view",
      "type": "function"
    },
    {
      "inputs": [
        {
          "internalType": "address",
          "name": "removeAddress",
          "type": "address"
        }
      ],
      "name": "removeFromWhitelist",
      "outputs": [],
      "stateMutability": "nonpayable",
      "type": "function"
    },
    {
      "inputs": [],
      "name": "renounceOwnership",
      "outputs": [],
      "stateMutability": "nonpayable",
      "type": "function"
    },
    {
      "inputs": [],
      "name": "symbol",
      "outputs": [
        {
          "internalType": "string",
          "name": "",
          "type": "string"
        }
      ],
      "stateMutability": "view",
      "type": "function"
    },
    {
      "inputs": [],
      "name": "totalSupply",
      "outputs": [
        {
          "internalType": "uint256",
          "name": "",
          "type": "uint256"
        }
      ],
      "stateMutability": "view",
      "type": "function"
    },
    {
      "inputs": [
        {
          "internalType": "address",
          "name": "to",
          "type": "address"
        },
        {
          "internalType": "uint256",
          "name": "amount",
          "type": "uint256"
        }
      ],
      "name": "transfer",
      "outputs": [
        {
          "internalType": "bool",
          "name": "",
          "type": "bool"
        }
      ],
      "stateMutability": "nonpayable",
      "type": "function"
    },
    {
      "inputs": [
        {
          "internalType": "address",
          "name": "from",
          "type": "address"
        },
        {
          "internalType": "address",
          "name": "to",
          "type": "address"
        },
        {
          "internalType": "uint256",
          "name": "amount",
          "type": "uint256"
        }
      ],
      "name": "transferFrom",
      "outputs": [
        {
          "internalType": "bool",
          "name": "",
          "type": "bool"
        }
      ],
      "stateMutability": "nonpayable",
      "type": "function"
    },
    {
      "inputs": [
        {
          "internalType": "address",
          "name": "newOwner",
          "type": "address"
        }
      ],
      "name": "transferOwnership",
      "outputs": [],
      "stateMutability": "nonpayable",
      "type": "function"
    },
    {
      "inputs": [
        {
          "internalType": "address",
          "name": "_toAddress",
          "type": "address"
        },
        {
          "internalType": "uint256",
          "name": "_amount",
          "type": "uint256"
        }
      ],
      "name": "transferToken",
      "outputs": [
        {
          "internalType": "bool",
          "name": "",
          "type": "bool"
        }
      ],
      "stateMutability": "nonpayable",
      "type": "function"
    }
  ],
  "bytecode": "0x608060405234801561001057600080fd5b506040516122903803806122908339818101604052810190610032919061046f565b828281600390816100439190610711565b5080600490816100539190610711565b50505061007261006761008a60201b60201c565b61009260201b60201c565b610082338261015860201b60201c565b5050506108ed565b600033905090565b6000600560009054906101000a900473ffffffffffffffffffffffffffffffffffffffff16905081600560006101000a81548173ffffffffffffffffffffffffffffffffffffffff021916908373ffffffffffffffffffffffffffffffffffffffff1602179055508173ffffffffffffffffffffffffffffffffffffffff168173ffffffffffffffffffffffffffffffffffffffff167f8be0079c531659141344cd1fd0a4f28419497f9722a3daafe3b4186f6b6457e060405160405180910390a35050565b600073ffffffffffffffffffffffffffffffffffffffff168273ffffffffffffffffffffffffffffffffffffffff16036101c7576040517f08c379a00000000000000000000000000000000000000000000000000000000081526004016101be90610840565b60405180910390fd5b6101d9600083836102ba60201b60201c565b80600260008282546101eb919061088f565b92505081905550806000808473ffffffffffffffffffffffffffffffffffffffff1673ffffffffffffffffffffffffffffffffffffffff168152602001908152602001600020600082825401925050819055508173ffffffffffffffffffffffffffffffffffffffff16600073ffffffffffffffffffffffffffffffffffffffff167fddf252ad1be2c89b69c2b068fc378daa952ba7f163c4a11628f55a4df523b3ef8360405161029c91906108d2565b60405180910390a36102b6600083836102bf60201b60201c565b5050565b505050565b505050565b6000604051905090565b600080fd5b600080fd5b600080fd5b600080fd5b6000601f19601f8301169050919050565b7f4e487b7100000000000000000000000000000000000000000000000000000000600052604160045260246000fd5b61032b826102e2565b810181811067ffffffffffffffff8211171561034a576103496102f3565b5b80604052505050565b600061035d6102c4565b90506103698282610322565b919050565b600067ffffffffffffffff821115610389576103886102f3565b5b610392826102e2565b9050602081019050919050565b60005b838110156103bd5780820151818401526020810190506103a2565b60008484015250505050565b60006103dc6103d78461036e565b610353565b9050828152602081018484840111156103f8576103f76102dd565b5b61040384828561039f565b509392505050565b600082601f8301126104205761041f6102d8565b5b81516104308482602086016103c9565b91505092915050565b6000819050919050565b61044c81610439565b811461045757600080fd5b50565b60008151905061046981610443565b92915050565b600080600060608486031215610488576104876102ce565b5b600084015167ffffffffffffffff8111156104a6576104a56102d3565b5b6104b28682870161040b565b935050602084015167ffffffffffffffff8111156104d3576104d26102d3565b5b6104df8682870161040b565b92505060406104f08682870161045a565b9150509250925092565b600081519050919050565b7f4e487b7100000000000000000000000000000000000000000000000000000000600052602260045260246000fd5b6000600282049050600182168061054c57607f821691505b60208210810361055f5761055e610505565b5b50919050565b60008190508160005260206000209050919050565b60006020601f8301049050919050565b600082821b905092915050565b6000600883026105c77fffffffffffffffffffffffffffffffffffffffffffffffffffffffffffffffff8261058a565b6105d1868361058a565b95508019841693508086168417925050509392505050565b6000819050919050565b600061060e61060961060484610439565b6105e9565b610439565b9050919050565b6000819050919050565b610628836105f3565b61063c61063482610615565b848454610597565b825550505050565b600090565b610651610644565b61065c81848461061f565b505050565b5b8181101561068057610675600082610649565b600181019050610662565b5050565b601f8211156106c55761069681610565565b61069f8461057a565b810160208510156106ae578190505b6106c26106ba8561057a565b830182610661565b50505b505050565b600082821c905092915050565b60006106e8600019846008026106ca565b1980831691505092915050565b600061070183836106d7565b9150826002028217905092915050565b61071a826104fa565b67ffffffffffffffff811115610733576107326102f3565b5b61073d8254610534565b610748828285610684565b600060209050601f83116001811461077b5760008415610769578287015190505b61077385826106f5565b8655506107db565b601f19841661078986610565565b60005b828110156107b15784890151825560018201915060208501945060208101905061078c565b868310156107ce57848901516107ca601f8916826106d7565b8355505b6001600288020188555050505b505050505050565b600082825260208201905092915050565b7f45524332303a206d696e7420746f20746865207a65726f206164647265737300600082015250565b600061082a601f836107e3565b9150610835826107f4565b602082019050919050565b600060208201905081810360008301526108598161081d565b9050919050565b7f4e487b7100000000000000000000000000000000000000000000000000000000600052601160045260246000fd5b600061089a82610439565b91506108a583610439565b92508282019050808211156108bd576108bc610860565b5b92915050565b6108cc81610439565b82525050565b60006020820190506108e760008301846108c3565b92915050565b611994806108fc6000396000f3fe608060405234801561001057600080fd5b50600436106101165760003560e01c8063715018a6116100a2578063a457c2d711610071578063a457c2d7146102f7578063a9059cbb14610327578063dd62ed3e14610357578063e43252d714610387578063f2fde38b146103a357610116565b8063715018a6146102955780638ab1d6811461029f5780638da5cb5b146102bb57806395d89b41146102d957610116565b806323b872dd116100e957806323b872dd146101b7578063313ce567146101e75780633950935114610205578063634f87b51461023557806370a082311461026557610116565b806306fdde031461011b578063095ea7b3146101395780631072cbea1461016957806318160ddd14610199575b600080fd5b6101236103bf565b6040516101309190611071565b60405180910390f35b610153600480360381019061014e919061112c565b610451565b6040516101609190611187565b60405180910390f35b610183600480360381019061017e919061112c565b610474565b6040516101909190611187565b60405180910390f35b6101a16105a5565b6040516101ae91906111b1565b60405180910390f35b6101d160048036038101906101cc91906111cc565b6105af565b6040516101de9190611187565b60405180910390f35b6101ef6105de565b6040516101fc919061123b565b60405180910390f35b61021f600480360381019061021a919061112c565b6105e7565b60405161022c9190611187565b60405180910390f35b61024f600480360381019061024a9190611256565b61061e565b60405161025c9190611187565b60405180910390f35b61027f600480360381019061027a9190611256565b61063e565b60405161028c91906111b1565b60405180910390f35b61029d610686565b005b6102b960048036038101906102b49190611256565b61069a565b005b6102c36106fd565b6040516102d09190611292565b60405180910390f35b6102e1610727565b6040516102ee9190611071565b60405180910390f35b610311600480360381019061030c919061112c565b6107b9565b60405161031e9190611187565b60405180910390f35b610341600480360381019061033c919061112c565b610830565b60405161034e9190611187565b60405180910390f35b610371600480360381019061036c91906112ad565b610853565b60405161037e91906111b1565b60405180910390f35b6103a1600480360381019061039c9190611256565b6108da565b005b6103bd60048036038101906103b89190611256565b61093d565b005b6060600380546103ce9061131c565b80601f01602080910402602001604051908101604052809291908181526020018280546103fa9061131c565b80156104475780601f1061041c57610100808354040283529160200191610447565b820191906000526020600020905b81548152906001019060200180831161042a57829003601f168201915b5050505050905090565b60008061045c6109c0565b90506104698185856109c8565b600191505092915050565b600082600660003373ffffffffffffffffffffffffffffffffffffffff1673ffffffffffffffffffffffffffffffffffffffff16815260200190815260200160002060009054906101000a900460ff16610503576040517f08c379a00000000000000000000000000000000000000000000000000000000081526004016104fa90611399565b60405180910390fd5b600660008273ffffffffffffffffffffffffffffffffffffffff1673ffffffffffffffffffffffffffffffffffffffff16815260200190815260200160002060009054906101000a900460ff1661058f576040517f08c379a000000000000000000000000000000000000000000000000000000000815260040161058690611405565b60405180910390fd5b61059a338585610b91565b600191505092915050565b6000600254905090565b6000806105ba6109c0565b90506105c7858285610e07565b6105d2858585610b91565b60019150509392505050565b60006012905090565b6000806105f26109c0565b90506106138185856106048589610853565b61060e9190611454565b6109c8565b600191505092915050565b60066020528060005260406000206000915054906101000a900460ff1681565b60008060008373ffffffffffffffffffffffffffffffffffffffff1673ffffffffffffffffffffffffffffffffffffffff168152602001908152602001600020549050919050565b61068e610e93565b6106986000610f11565b565b6106a2610e93565b6000600660008373ffffffffffffffffffffffffffffffffffffffff1673ffffffffffffffffffffffffffffffffffffffff16815260200190815260200160002060006101000a81548160ff02191690831515021790555050565b6000600560009054906101000a900473ffffffffffffffffffffffffffffffffffffffff16905090565b6060600480546107369061131c565b80601f01602080910402602001604051908101604052809291908181526020018280546107629061131c565b80156107af5780601f10610784576101008083540402835291602001916107af565b820191906000526020600020905b81548152906001019060200180831161079257829003601f168201915b5050505050905090565b6000806107c46109c0565b905060006107d28286610853565b905083811015610817576040517f08c379a000000000000000000000000000000000000000000000000000000000815260040161080e906114fa565b60405180910390fd5b61082482868684036109c8565b60019250505092915050565b60008061083b6109c0565b9050610848818585610b91565b600191505092915050565b6000600160008473ffffffffffffffffffffffffffffffffffffffff1673ffffffffffffffffffffffffffffffffffffffff16815260200190815260200160002060008373ffffffffffffffffffffffffffffffffffffffff1673ffffffffffffffffffffffffffffffffffffffff16815260200190815260200160002054905092915050565b6108e2610e93565b6001600660008373ffffffffffffffffffffffffffffffffffffffff1673ffffffffffffffffffffffffffffffffffffffff16815260200190815260200160002060006101000a81548160ff02191690831515021790555050565b610945610e93565b600073ffffffffffffffffffffffffffffffffffffffff168173ffffffffffffffffffffffffffffffffffffffff16036109b4576040517f08c379a00000000000000000000000000000000000000000000000000000000081526004016109ab9061158c565b60405180910390fd5b6109bd81610f11565b50565b600033905090565b600073ffffffffffffffffffffffffffffffffffffffff168373ffffffffffffffffffffffffffffffffffffffff1603610a37576040517f08c379a0000000000000000000000000000000000000000000000000000000008152600401610a2e9061161e565b60405180910390fd5b600073ffffffffffffffffffffffffffffffffffffffff168273ffffffffffffffffffffffffffffffffffffffff1603610aa6576040517f08c379a0000000000000000000000000000000000000000000000000000000008152600401610a9d906116b0565b60405180910390fd5b80600160008573ffffffffffffffffffffffffffffffffffffffff1673ffffffffffffffffffffffffffffffffffffffff16815260200190815260200160002060008473ffffffffffffffffffffffffffffffffffffffff1673ffffffffffffffffffffffffffffffffffffffff168152602001908152602001600020819055508173ffffffffffffffffffffffffffffffffffffffff168373ffffffffffffffffffffffffffffffffffffffff167f8c5be1e5ebec7d5bd14f71427d1e84f3dd0314c0f7b2291e5b200ac8c7c3b92583604051610b8491906111b1565b60405180910390a3505050565b600073ffffffffffffffffffffffffffffffffffffffff168373ffffffffffffffffffffffffffffffffffffffff1603610c00576040517f08c379a0000000000000000000000000000000000000000000000000000000008152600401610bf790611742565b60405180910390fd5b600073ffffffffffffffffffffffffffffffffffffffff168273ffffffffffffffffffffffffffffffffffffffff1603610c6f576040517f08c379a0000000000000000000000000000000000000000000000000000000008152600401610c66906117d4565b60405180910390fd5b610c7a838383610fd7565b60008060008573ffffffffffffffffffffffffffffffffffffffff1673ffffffffffffffffffffffffffffffffffffffff16815260200190815260200160002054905081811015610d00576040517f08c379a0000000000000000000000000000000000000000000000000000000008152600401610cf790611866565b60405180910390fd5b8181036000808673ffffffffffffffffffffffffffffffffffffffff1673ffffffffffffffffffffffffffffffffffffffff16815260200190815260200160002081905550816000808573ffffffffffffffffffffffffffffffffffffffff1673ffffffffffffffffffffffffffffffffffffffff168152602001908152602001600020600082825401925050819055508273ffffffffffffffffffffffffffffffffffffffff168473ffffffffffffffffffffffffffffffffffffffff167fddf252ad1be2c89b69c2b068fc378daa952ba7f163c4a11628f55a4df523b3ef84604051610dee91906111b1565b60405180910390a3610e01848484610fdc565b50505050565b6000610e138484610853565b90507fffffffffffffffffffffffffffffffffffffffffffffffffffffffffffffffff8114610e8d5781811015610e7f576040517f08c379a0000000000000000000000000000000000000000000000000000000008152600401610e76906118d2565b60405180910390fd5b610e8c84848484036109c8565b5b50505050565b610e9b6109c0565b73ffffffffffffffffffffffffffffffffffffffff16610eb96106fd565b73ffffffffffffffffffffffffffffffffffffffff1614610f0f576040517f08c379a0000000000000000000000000000000000000000000000000000000008152600401610f069061193e565b60405180910390fd5b565b6000600560009054906101000a900473ffffffffffffffffffffffffffffffffffffffff16905081600560006101000a81548173ffffffffffffffffffffffffffffffffffffffff021916908373ffffffffffffffffffffffffffffffffffffffff1602179055508173ffffffffffffffffffffffffffffffffffffffff168173ffffffffffffffffffffffffffffffffffffffff167f8be0079c531659141344cd1fd0a4f28419497f9722a3daafe3b4186f6b6457e060405160405180910390a35050565b505050565b505050565b600081519050919050565b600082825260208201905092915050565b60005b8381101561101b578082015181840152602081019050611000565b60008484015250505050565b6000601f19601f8301169050919050565b600061104382610fe1565b61104d8185610fec565b935061105d818560208601610ffd565b61106681611027565b840191505092915050565b6000602082019050818103600083015261108b8184611038565b905092915050565b600080fd5b600073ffffffffffffffffffffffffffffffffffffffff82169050919050565b60006110c382611098565b9050919050565b6110d3816110b8565b81146110de57600080fd5b50565b6000813590506110f0816110ca565b92915050565b6000819050919050565b611109816110f6565b811461111457600080fd5b50565b60008135905061112681611100565b92915050565b6000806040838503121561114357611142611093565b5b6000611151858286016110e1565b925050602061116285828601611117565b9150509250929050565b60008115159050919050565b6111818161116c565b82525050565b600060208201905061119c6000830184611178565b92915050565b6111ab816110f6565b82525050565b60006020820190506111c660008301846111a2565b92915050565b6000806000606084860312156111e5576111e4611093565b5b60006111f3868287016110e1565b9350506020611204868287016110e1565b925050604061121586828701611117565b9150509250925092565b600060ff82169050919050565b6112358161121f565b82525050565b6000602082019050611250600083018461122c565b92915050565b60006020828403121561126c5761126b611093565b5b600061127a848285016110e1565b91505092915050565b61128c816110b8565b82525050565b60006020820190506112a76000830184611283565b92915050565b600080604083850312156112c4576112c3611093565b5b60006112d2858286016110e1565b92505060206112e3858286016110e1565b9150509250929050565b7f4e487b7100000000000000000000000000000000000000000000000000000000600052602260045260246000fd5b6000600282049050600182168061133457607f821691505b602082108103611347576113466112ed565b5b50919050565b7f53454e4445525f4e4f545f494e5f57484954454c495354000000000000000000600082015250565b6000611383601783610fec565b915061138e8261134d565b602082019050919050565b600060208201905081810360008301526113b281611376565b9050919050565b7f524543495049454e545f4e4f545f494e5f57484954454c495354000000000000600082015250565b60006113ef601a83610fec565b91506113fa826113b9565b602082019050919050565b6000602082019050818103600083015261141e816113e2565b9050919050565b7f4e487b7100000000000000000000000000000000000000000000000000000000600052601160045260246000fd5b600061145f826110f6565b915061146a836110f6565b925082820190508082111561148257611481611425565b5b92915050565b7f45524332303a2064656372656173656420616c6c6f77616e63652062656c6f7760008201527f207a65726f000000000000000000000000000000000000000000000000000000602082015250565b60006114e4602583610fec565b91506114ef82611488565b604082019050919050565b60006020820190508181036000830152611513816114d7565b9050919050565b7f4f776e61626c653a206e6577206f776e657220697320746865207a65726f206160008201527f6464726573730000000000000000000000000000000000000000000000000000602082015250565b6000611576602683610fec565b91506115818261151a565b604082019050919050565b600060208201905081810360008301526115a581611569565b9050919050565b7f45524332303a20617070726f76652066726f6d20746865207a65726f2061646460008201527f7265737300000000000000000000000000000000000000000000000000000000602082015250565b6000611608602483610fec565b9150611613826115ac565b604082019050919050565b60006020820190508181036000830152611637816115fb565b9050919050565b7f45524332303a20617070726f766520746f20746865207a65726f20616464726560008201527f7373000000000000000000000000000000000000000000000000000000000000602082015250565b600061169a602283610fec565b91506116a58261163e565b604082019050919050565b600060208201905081810360008301526116c98161168d565b9050919050565b7f45524332303a207472616e736665722066726f6d20746865207a65726f20616460008201527f6472657373000000000000000000000000000000000000000000000000000000602082015250565b600061172c602583610fec565b9150611737826116d0565b604082019050919050565b6000602082019050818103600083015261175b8161171f565b9050919050565b7f45524332303a207472616e7366657220746f20746865207a65726f206164647260008201527f6573730000000000000000000000000000000000000000000000000000000000602082015250565b60006117be602383610fec565b91506117c982611762565b604082019050919050565b600060208201905081810360008301526117ed816117b1565b9050919050565b7f45524332303a207472616e7366657220616d6f756e742065786365656473206260008201527f616c616e63650000000000000000000000000000000000000000000000000000602082015250565b6000611850602683610fec565b915061185b826117f4565b604082019050919050565b6000602082019050818103600083015261187f81611843565b9050919050565b7f45524332303a20696e73756666696369656e7420616c6c6f77616e6365000000600082015250565b60006118bc601d83610fec565b91506118c782611886565b602082019050919050565b600060208201905081810360008301526118eb816118af565b9050919050565b7f4f776e61626c653a2063616c6c6572206973206e6f7420746865206f776e6572600082015250565b6000611928602083610fec565b9150611933826118f2565b602082019050919050565b600060208201905081810360008301526119578161191b565b905091905056fea26469706673582212202d57cf738294a9781b82871b321cb1de9832b9fcd31e228c7aa049d4f40e31d464736f6c634300081a0033",
  "linkReferences": {},
  "deployedLinkReferences": {}
}