{
  "_format": "hh-sol-artifact-1",
  "contractName": "DBToken",
  "sourceName": "contracts/DBToken.sol",
  "abi": [
    {
      "inputs": [
        {
          "internalType": "string",
          "name": "_tokenName",
          "type": "string"
        },
        {
          "internalType": "string",
          "name": "_tokenSymbol",
          "type": "string"
        },
        {
          "internalType": "uint256",
          "name": "_initialSupply",
          "type": "uint256"
        },
        {
          "internalType": "string",
          "name": "_assetDescription",
          "type": "string"
        },
        {
          "internalType": "string",
          "name": "_issuerName",
          "type": "string"
        },
        {
          "internalType": "uint256",
          "name": "_isinNumber",
          "type": "uint256"
        },
        {
          "internalType": "uint256",
          "name": "_tokenPriceInEuro",
          "type": "uint256"
        },
        {
          "internalType": "uint256",
          "name": "_nominalValue",
          "type": "uint256"
        },
        {
          "internalType": "uint256",
          "name": "_maturityDate",
          "type": "uint256"
        },
        {
          "internalType": "uint16",
          "name": "_yield",
          "type": "uint16"
        }
      ],
      "stateMutability": "nonpayable",
      "type": "constructor"
    },
    {
      "anonymous": false,
      "inputs": [
        {
          "indexed": true,
          "internalType": "address",
          "name": "owner",
          "type": "address"
        },
        {
          "indexed": true,
          "internalType": "address",
          "name": "spender",
          "type": "address"
        },
        {
          "indexed": false,
          "internalType": "uint256",
          "name": "value",
          "type": "uint256"
        }
      ],
      "name": "Approval",
      "type": "event"
    },
    {
      "anonymous": false,
      "inputs": [
        {
          "indexed": true,
          "internalType": "address",
          "name": "previousOwner",
          "type": "address"
        },
        {
          "indexed": true,
          "internalType": "address",
          "name": "newOwner",
          "type": "address"
        }
      ],
      "name": "OwnershipTransferred",
      "type": "event"
    },
    {
      "anonymous": false,
      "inputs": [
        {
          "indexed": true,
          "internalType": "address",
          "name": "from",
          "type": "address"
        },
        {
          "indexed": true,
          "internalType": "address",
          "name": "to",
          "type": "address"
        },
        {
          "indexed": false,
          "internalType": "uint256",
          "name": "value",
          "type": "uint256"
        }
      ],
      "name": "Transfer",
      "type": "event"
    },
    {
      "inputs": [
        {
          "internalType": "address",
          "name": "owner",
          "type": "address"
        },
        {
          "internalType": "address",
          "name": "spender",
          "type": "address"
        }
      ],
      "name": "allowance",
      "outputs": [
        {
          "internalType": "uint256",
          "name": "",
          "type": "uint256"
        }
      ],
      "stateMutability": "view",
      "type": "function"
    },
    {
      "inputs": [
        {
          "internalType": "address",
          "name": "spender",
          "type": "address"
        },
        {
          "internalType": "uint256",
          "name": "amount",
          "type": "uint256"
        }
      ],
      "name": "approve",
      "outputs": [
        {
          "internalType": "bool",
          "name": "",
          "type": "bool"
        }
      ],
      "stateMutability": "nonpayable",
      "type": "function"
    },
    {
      "inputs": [],
      "name": "assetDescription",
      "outputs": [
        {
          "internalType": "string",
          "name": "",
          "type": "string"
        }
      ],
      "stateMutability": "view",
      "type": "function"
    },
    {
      "inputs": [
        {
          "internalType": "address",
          "name": "account",
          "type": "address"
        }
      ],
      "name": "balanceOf",
      "outputs": [
        {
          "internalType": "uint256",
          "name": "",
          "type": "uint256"
        }
      ],
      "stateMutability": "view",
      "type": "function"
    },
    {
      "inputs": [],
      "name": "decimals",
      "outputs": [
        {
          "internalType": "uint8",
          "name": "",
          "type": "uint8"
        }
      ],
      "stateMutability": "view",
      "type": "function"
    },
    {
      "inputs": [
        {
          "internalType": "address",
          "name": "spender",
          "type": "address"
        },
        {
          "internalType": "uint256",
          "name": "subtractedValue",
          "type": "uint256"
        }
      ],
      "name": "decreaseAllowance",
      "outputs": [
        {
          "internalType": "bool",
          "name": "",
          "type": "bool"
        }
      ],
      "stateMutability": "nonpayable",
      "type": "function"
    },
    {
      "inputs": [],
      "name": "getWhitelistAddress",
      "outputs": [
        {
          "internalType": "address",
          "name": "",
          "type": "address"
        }
      ],
      "stateMutability": "view",
      "type": "function"
    },
    {
      "inputs": [
        {
          "internalType": "address",
          "name": "spender",
          "type": "address"
        },
        {
          "internalType": "uint256",
          "name": "addedValue",
          "type": "uint256"
        }
      ],
      "name": "increaseAllowance",
      "outputs": [
        {
          "internalType": "bool",
          "name": "",
          "type": "bool"
        }
      ],
      "stateMutability": "nonpayable",
      "type": "function"
    },
    {
      "inputs": [],
      "name": "isinNumber",
      "outputs": [
        {
          "internalType": "uint256",
          "name": "",
          "type": "uint256"
        }
      ],
      "stateMutability": "view",
      "type": "function"
    },
    {
      "inputs": [],
      "name": "issuerName",
      "outputs": [
        {
          "internalType": "string",
          "name": "",
          "type": "string"
        }
      ],
      "stateMutability": "view",
      "type": "function"
    },
    {
      "inputs": [],
      "name": "maturityDate",
      "outputs": [
        {
          "internalType": "uint256",
          "name": "",
          "type": "uint256"
        }
      ],
      "stateMutability": "view",
      "type": "function"
    },
    {
      "inputs": [],
      "name": "name",
      "outputs": [
        {
          "internalType": "string",
          "name": "",
          "type": "string"
        }
      ],
      "stateMutability": "view",
      "type": "function"
    },
    {
      "inputs": [],
      "name": "nominalValue",
      "outputs": [
        {
          "internalType": "uint256",
          "name": "",
          "type": "uint256"
        }
      ],
      "stateMutability": "view",
      "type": "function"
    },
    {
      "inputs": [],
      "name": "owner",
      "outputs": [
        {
          "internalType": "address",
          "name": "",
          "type": "address"
        }
      ],
      "stateMutability": "view",
      "type": "function"
    },
    {
      "inputs": [],
      "name": "renounceOwnership",
      "outputs": [],
      "stateMutability": "nonpayable",
      "type": "function"
    },
    {
      "inputs": [],
      "name": "symbol",
      "outputs": [
        {
          "internalType": "string",
          "name": "",
          "type": "string"
        }
      ],
      "stateMutability": "view",
      "type": "function"
    },
    {
      "inputs": [],
      "name": "tokenPriceInEuro",
      "outputs": [
        {
          "internalType": "uint256",
          "name": "",
          "type": "uint256"
        }
      ],
      "stateMutability": "view",
      "type": "function"
    },
    {
      "inputs": [],
      "name": "totalSupply",
      "outputs": [
        {
          "internalType": "uint256",
          "name": "",
          "type": "uint256"
        }
      ],
      "stateMutability": "view",
      "type": "function"
    },
    {
      "inputs": [
        {
          "internalType": "address",
          "name": "to",
          "type": "address"
        },
        {
          "internalType": "uint256",
          "name": "amount",
          "type": "uint256"
        }
      ],
      "name": "transfer",
      "outputs": [
        {
          "internalType": "bool",
          "name": "",
          "type": "bool"
        }
      ],
      "stateMutability": "nonpayable",
      "type": "function"
    },
    {
      "inputs": [
        {
          "internalType": "address",
          "name": "from",
          "type": "address"
        },
        {
          "internalType": "address",
          "name": "to",
          "type": "address"
        },
        {
          "internalType": "uint256",
          "name": "amount",
          "type": "uint256"
        }
      ],
      "name": "transferFrom",
      "outputs": [
        {
          "internalType": "bool",
          "name": "",
          "type": "bool"
        }
      ],
      "stateMutability": "nonpayable",
      "type": "function"
    },
    {
      "inputs": [
        {
          "internalType": "address",
          "name": "newOwner",
          "type": "address"
        }
      ],
      "name": "transferOwnership",
      "outputs": [],
      "stateMutability": "nonpayable",
      "type": "function"
    },
    {
      "inputs": [
        {
          "internalType": "address",
          "name": "_toAddress",
          "type": "address"
        },
        {
          "internalType": "uint256",
          "name": "_amount",
          "type": "uint256"
        }
      ],
      "name": "transferToken",
      "outputs": [
        {
          "internalType": "bool",
          "name": "",
          "type": "bool"
        }
      ],
      "stateMutability": "nonpayable",
      "type": "function"
    },
    {
      "inputs": [],
      "name": "whitelistAddress",
      "outputs": [
        {
          "internalType": "address",
          "name": "",
          "type": "address"
        }
      ],
      "stateMutability": "view",
      "type": "function"
    },
    {
      "inputs": [],
      "name": "yield",
      "outputs": [
        {
          "internalType": "uint16",
          "name": "",
          "type": "uint16"
        }
      ],
      "stateMutability": "view",
      "type": "function"
    }
  ],
  "bytecode": "0x60806040526100126101ee60201b60201c565b60ff16600a61002191906105aa565b600f5534801561003057600080fd5b50604051612ffa380380612ffa833981810160405281019061005291906107d0565b898981600390816100639190610b36565b5080600490816100739190610b36565b5050506100926100876101f760201b60201c565b6101ff60201b60201c565b3360405161009f90610431565b6100a99190610c49565b604051809103906000f0801580156100c5573d6000803e3d6000fd5b50600760006101000a81548173ffffffffffffffffffffffffffffffffffffffff021916908373ffffffffffffffffffffffffffffffffffffffff160217905550600760009054906101000a900473ffffffffffffffffffffffffffffffffffffffff16600660006101000a81548173ffffffffffffffffffffffffffffffffffffffff021916908373ffffffffffffffffffffffffffffffffffffffff16021790555086600890816101789190610b36565b5085600990816101889190610b36565b5084600a8190555083600b8190555082600c8190555081600d8190555080600e60006101000a81548161ffff021916908361ffff1602179055506101df33600f548a6101d49190610c64565b6102c560201b60201c565b50505050505050505050610d81565b60006012905090565b600033905090565b6000600560009054906101000a900473ffffffffffffffffffffffffffffffffffffffff16905081600560006101000a81548173ffffffffffffffffffffffffffffffffffffffff021916908373ffffffffffffffffffffffffffffffffffffffff1602179055508173ffffffffffffffffffffffffffffffffffffffff168173ffffffffffffffffffffffffffffffffffffffff167f8be0079c531659141344cd1fd0a4f28419497f9722a3daafe3b4186f6b6457e060405160405180910390a35050565b600073ffffffffffffffffffffffffffffffffffffffff168273ffffffffffffffffffffffffffffffffffffffff1603610334576040517f08c379a000000000000000000000000000000000000000000000000000000000815260040161032b90610d03565b60405180910390fd5b6103466000838361042760201b60201c565b80600260008282546103589190610d23565b92505081905550806000808473ffffffffffffffffffffffffffffffffffffffff1673ffffffffffffffffffffffffffffffffffffffff168152602001908152602001600020600082825401925050819055508173ffffffffffffffffffffffffffffffffffffffff16600073ffffffffffffffffffffffffffffffffffffffff167fddf252ad1be2c89b69c2b068fc378daa952ba7f163c4a11628f55a4df523b3ef836040516104099190610d66565b60405180910390a36104236000838361042c60201b60201c565b5050565b505050565b505050565b6107858061287583390190565b7f4e487b7100000000000000000000000000000000000000000000000000000000600052601160045260246000fd5b60008160011c9050919050565b6000808291508390505b60018511156104c4578086048111156104a05761049f61043e565b5b60018516156104af5780820291505b80810290506104bd8561046d565b9450610484565b94509492505050565b6000826104dd5760019050610599565b816104eb5760009050610599565b8160018114610501576002811461050b5761053a565b6001915050610599565b60ff84111561051d5761051c61043e565b5b8360020a9150848211156105345761053361043e565b5b50610599565b5060208310610133831016604e8410600b841016171561056f5782820a90508381111561056a5761056961043e565b5b610599565b61057c848484600161047a565b925090508184048111156105935761059261043e565b5b81810290505b9392505050565b6000819050919050565b60006105b5826105a0565b91506105c0836105a0565b92506105ed7fffffffffffffffffffffffffffffffffffffffffffffffffffffffffffffffff84846104cd565b905092915050565b6000604051905090565b600080fd5b600080fd5b600080fd5b600080fd5b6000601f19601f8301169050919050565b7f4e487b7100000000000000000000000000000000000000000000000000000000600052604160045260246000fd5b61065c82610613565b810181811067ffffffffffffffff8211171561067b5761067a610624565b5b80604052505050565b600061068e6105f5565b905061069a8282610653565b919050565b600067ffffffffffffffff8211156106ba576106b9610624565b5b6106c382610613565b9050602081019050919050565b60005b838110156106ee5780820151818401526020810190506106d3565b60008484015250505050565b600061070d6107088461069f565b610684565b9050828152602081018484840111156107295761072861060e565b5b6107348482856106d0565b509392505050565b600082601f83011261075157610750610609565b5b81516107618482602086016106fa565b91505092915050565b610773816105a0565b811461077e57600080fd5b50565b6000815190506107908161076a565b92915050565b600061ffff82169050919050565b6107ad81610796565b81146107b857600080fd5b50565b6000815190506107ca816107a4565b92915050565b6000806000806000806000806000806101408b8d0312156107f4576107f36105ff565b5b60008b015167ffffffffffffffff81111561081257610811610604565b5b61081e8d828e0161073c565b9a505060208b015167ffffffffffffffff81111561083f5761083e610604565b5b61084b8d828e0161073c565b995050604061085c8d828e01610781565b98505060608b015167ffffffffffffffff81111561087d5761087c610604565b5b6108898d828e0161073c565b97505060808b015167ffffffffffffffff8111156108aa576108a9610604565b5b6108b68d828e0161073c565b96505060a06108c78d828e01610781565b95505060c06108d88d828e01610781565b94505060e06108e98d828e01610781565b9350506101006108fb8d828e01610781565b92505061012061090d8d828e016107bb565b9150509295989b9194979a5092959850565b600081519050919050565b7f4e487b7100000000000000000000000000000000000000000000000000000000600052602260045260246000fd5b6000600282049050600182168061097157607f821691505b6020821081036109845761098361092a565b5b50919050565b60008190508160005260206000209050919050565b60006020601f8301049050919050565b600082821b905092915050565b6000600883026109ec7fffffffffffffffffffffffffffffffffffffffffffffffffffffffffffffffff826109af565b6109f686836109af565b95508019841693508086168417925050509392505050565b6000819050919050565b6000610a33610a2e610a29846105a0565b610a0e565b6105a0565b9050919050565b6000819050919050565b610a4d83610a18565b610a61610a5982610a3a565b8484546109bc565b825550505050565b600090565b610a76610a69565b610a81818484610a44565b505050565b5b81811015610aa557610a9a600082610a6e565b600181019050610a87565b5050565b601f821115610aea57610abb8161098a565b610ac48461099f565b81016020851015610ad3578190505b610ae7610adf8561099f565b830182610a86565b50505b505050565b600082821c905092915050565b6000610b0d60001984600802610aef565b1980831691505092915050565b6000610b268383610afc565b9150826002028217905092915050565b610b3f8261091f565b67ffffffffffffffff811115610b5857610b57610624565b5b610b628254610959565b610b6d828285610aa9565b600060209050601f831160018114610ba05760008415610b8e578287015190505b610b988582610b1a565b865550610c00565b601f198416610bae8661098a565b60005b82811015610bd657848901518255600182019150602085019450602081019050610bb1565b86831015610bf35784890151610bef601f891682610afc565b8355505b6001600288020188555050505b505050505050565b600073ffffffffffffffffffffffffffffffffffffffff82169050919050565b6000610c3382610c08565b9050919050565b610c4381610c28565b82525050565b6000602082019050610c5e6000830184610c3a565b92915050565b6000610c6f826105a0565b9150610c7a836105a0565b9250828202610c88816105a0565b91508282048414831517610c9f57610c9e61043e565b5b5092915050565b600082825260208201905092915050565b7f45524332303a206d696e7420746f20746865207a65726f206164647265737300600082015250565b6000610ced601f83610ca6565b9150610cf882610cb7565b602082019050919050565b60006020820190508181036000830152610d1c81610ce0565b9050919050565b6000610d2e826105a0565b9150610d39836105a0565b9250828201905080821115610d5157610d5061043e565b5b92915050565b610d60816105a0565b82525050565b6000602082019050610d7b6000830184610d57565b92915050565b611ae580610d906000396000f3fe608060405234801561001057600080fd5b50600436106101585760003560e01c80638da5cb5b116100c3578063a9059cbb1161007c578063a9059cbb146103d1578063d59624b414610401578063dd62ed3e1461041f578063e5002a051461044f578063f088a38b1461046d578063f2fde38b1461048b57610158565b80638da5cb5b1461030b578063915eb97314610329578063938626c21461034757806395d89b41146103655780639bb0489514610383578063a457c2d7146103a157610158565b80632e9868f8116101155780632e9868f814610247578063313ce5671461026557806335f184401461028357806339509351146102a157806370a08231146102d1578063715018a61461030157610158565b806306fdde031461015d578063095ea7b31461017b5780631072cbea146101ab57806318160ddd146101db57806323b872dd146101f95780632859398414610229575b600080fd5b6101656104a7565b6040516101729190611220565b60405180910390f35b610195600480360381019061019091906112db565b610539565b6040516101a29190611336565b60405180910390f35b6101c560048036038101906101c091906112db565b61055c565b6040516101d29190611336565b60405180910390f35b6101e361069a565b6040516101f09190611360565b60405180910390f35b610213600480360381019061020e919061137b565b6106a4565b6040516102209190611336565b60405180910390f35b6102316106d3565b60405161023e91906113eb565b60405180910390f35b61024f6106e7565b60405161025c9190611220565b60405180910390f35b61026d610775565b60405161027a9190611422565b60405180910390f35b61028b61077e565b6040516102989190611360565b60405180910390f35b6102bb60048036038101906102b691906112db565b610784565b6040516102c89190611336565b60405180910390f35b6102eb60048036038101906102e6919061143d565b6107bb565b6040516102f89190611360565b60405180910390f35b610309610803565b005b610313610817565b6040516103209190611479565b60405180910390f35b610331610841565b60405161033e9190611479565b60405180910390f35b61034f610873565b60405161035c9190611220565b60405180910390f35b61036d610901565b60405161037a9190611220565b60405180910390f35b61038b610993565b6040516103989190611360565b60405180910390f35b6103bb60048036038101906103b691906112db565b610999565b6040516103c89190611336565b60405180910390f35b6103eb60048036038101906103e691906112db565b610a10565b6040516103f89190611336565b60405180910390f35b610409610a33565b6040516104169190611360565b60405180910390f35b61043960048036038101906104349190611494565b610a39565b6040516104469190611360565b60405180910390f35b610457610ac0565b6040516104649190611479565b60405180910390f35b610475610ae6565b6040516104829190611360565b60405180910390f35b6104a560048036038101906104a0919061143d565b610aec565b005b6060600380546104b690611503565b80601f01602080910402602001604051908101604052809291908181526020018280546104e290611503565b801561052f5780601f106105045761010080835404028352916020019161052f565b820191906000526020600020905b81548152906001019060200180831161051257829003601f168201915b5050505050905090565b600080610544610b6f565b9050610551818585610b77565b600191505092915050565b600082600660009054906101000a900473ffffffffffffffffffffffffffffffffffffffff1673ffffffffffffffffffffffffffffffffffffffff16634c8dbbb3826040518263ffffffff1660e01b81526004016105ba9190611479565b60006040518083038186803b1580156105d257600080fd5b505afa1580156105e6573d6000803e3d6000fd5b5050505033600660009054906101000a900473ffffffffffffffffffffffffffffffffffffffff1673ffffffffffffffffffffffffffffffffffffffff166394f3f529826040518263ffffffff1660e01b81526004016106469190611479565b60006040518083038186803b15801561065e57600080fd5b505afa158015610672573d6000803e3d6000fd5b5050505061068e3386600f54876106899190611563565b610d40565b60019250505092915050565b6000600254905090565b6000806106af610b6f565b90506106bc858285610fb6565b6106c7858585610d40565b60019150509392505050565b600e60009054906101000a900461ffff1681565b600980546106f490611503565b80601f016020809104026020016040519081016040528092919081815260200182805461072090611503565b801561076d5780601f106107425761010080835404028352916020019161076d565b820191906000526020600020905b81548152906001019060200180831161075057829003601f168201915b505050505081565b60006012905090565b600a5481565b60008061078f610b6f565b90506107b08185856107a18589610a39565b6107ab91906115a5565b610b77565b600191505092915050565b60008060008373ffffffffffffffffffffffffffffffffffffffff1673ffffffffffffffffffffffffffffffffffffffff168152602001908152602001600020549050919050565b61080b611042565b61081560006110c0565b565b6000600560009054906101000a900473ffffffffffffffffffffffffffffffffffffffff16905090565b600061084b611042565b600760009054906101000a900473ffffffffffffffffffffffffffffffffffffffff16905090565b6008805461088090611503565b80601f01602080910402602001604051908101604052809291908181526020018280546108ac90611503565b80156108f95780601f106108ce576101008083540402835291602001916108f9565b820191906000526020600020905b8154815290600101906020018083116108dc57829003601f168201915b505050505081565b60606004805461091090611503565b80601f016020809104026020016040519081016040528092919081815260200182805461093c90611503565b80156109895780601f1061095e57610100808354040283529160200191610989565b820191906000526020600020905b81548152906001019060200180831161096c57829003601f168201915b5050505050905090565b600c5481565b6000806109a4610b6f565b905060006109b28286610a39565b9050838110156109f7576040517f08c379a00000000000000000000000000000000000000000000000000000000081526004016109ee9061164b565b60405180910390fd5b610a048286868403610b77565b60019250505092915050565b600080610a1b610b6f565b9050610a28818585610d40565b600191505092915050565b600d5481565b6000600160008473ffffffffffffffffffffffffffffffffffffffff1673ffffffffffffffffffffffffffffffffffffffff16815260200190815260200160002060008373ffffffffffffffffffffffffffffffffffffffff1673ffffffffffffffffffffffffffffffffffffffff16815260200190815260200160002054905092915050565b600760009054906101000a900473ffffffffffffffffffffffffffffffffffffffff1681565b600b5481565b610af4611042565b600073ffffffffffffffffffffffffffffffffffffffff168173ffffffffffffffffffffffffffffffffffffffff1603610b63576040517f08c379a0000000000000000000000000000000000000000000000000000000008152600401610b5a906116dd565b60405180910390fd5b610b6c816110c0565b50565b600033905090565b600073ffffffffffffffffffffffffffffffffffffffff168373ffffffffffffffffffffffffffffffffffffffff1603610be6576040517f08c379a0000000000000000000000000000000000000000000000000000000008152600401610bdd9061176f565b60405180910390fd5b600073ffffffffffffffffffffffffffffffffffffffff168273ffffffffffffffffffffffffffffffffffffffff1603610c55576040517f08c379a0000000000000000000000000000000000000000000000000000000008152600401610c4c90611801565b60405180910390fd5b80600160008573ffffffffffffffffffffffffffffffffffffffff1673ffffffffffffffffffffffffffffffffffffffff16815260200190815260200160002060008473ffffffffffffffffffffffffffffffffffffffff1673ffffffffffffffffffffffffffffffffffffffff168152602001908152602001600020819055508173ffffffffffffffffffffffffffffffffffffffff168373ffffffffffffffffffffffffffffffffffffffff167f8c5be1e5ebec7d5bd14f71427d1e84f3dd0314c0f7b2291e5b200ac8c7c3b92583604051610d339190611360565b60405180910390a3505050565b600073ffffffffffffffffffffffffffffffffffffffff168373ffffffffffffffffffffffffffffffffffffffff1603610daf576040517f08c379a0000000000000000000000000000000000000000000000000000000008152600401610da690611893565b60405180910390fd5b600073ffffffffffffffffffffffffffffffffffffffff168273ffffffffffffffffffffffffffffffffffffffff1603610e1e576040517f08c379a0000000000000000000000000000000000000000000000000000000008152600401610e1590611925565b60405180910390fd5b610e29838383611186565b60008060008573ffffffffffffffffffffffffffffffffffffffff1673ffffffffffffffffffffffffffffffffffffffff16815260200190815260200160002054905081811015610eaf576040517f08c379a0000000000000000000000000000000000000000000000000000000008152600401610ea6906119b7565b60405180910390fd5b8181036000808673ffffffffffffffffffffffffffffffffffffffff1673ffffffffffffffffffffffffffffffffffffffff16815260200190815260200160002081905550816000808573ffffffffffffffffffffffffffffffffffffffff1673ffffffffffffffffffffffffffffffffffffffff168152602001908152602001600020600082825401925050819055508273ffffffffffffffffffffffffffffffffffffffff168473ffffffffffffffffffffffffffffffffffffffff167fddf252ad1be2c89b69c2b068fc378daa952ba7f163c4a11628f55a4df523b3ef84604051610f9d9190611360565b60405180910390a3610fb084848461118b565b50505050565b6000610fc28484610a39565b90507fffffffffffffffffffffffffffffffffffffffffffffffffffffffffffffffff811461103c578181101561102e576040517f08c379a000000000000000000000000000000000000000000000000000000000815260040161102590611a23565b60405180910390fd5b61103b8484848403610b77565b5b50505050565b61104a610b6f565b73ffffffffffffffffffffffffffffffffffffffff16611068610817565b73ffffffffffffffffffffffffffffffffffffffff16146110be576040517f08c379a00000000000000000000000000000000000000000000000000000000081526004016110b590611a8f565b60405180910390fd5b565b6000600560009054906101000a900473ffffffffffffffffffffffffffffffffffffffff16905081600560006101000a81548173ffffffffffffffffffffffffffffffffffffffff021916908373ffffffffffffffffffffffffffffffffffffffff1602179055508173ffffffffffffffffffffffffffffffffffffffff168173ffffffffffffffffffffffffffffffffffffffff167f8be0079c531659141344cd1fd0a4f28419497f9722a3daafe3b4186f6b6457e060405160405180910390a35050565b505050565b505050565b600081519050919050565b600082825260208201905092915050565b60005b838110156111ca5780820151818401526020810190506111af565b60008484015250505050565b6000601f19601f8301169050919050565b60006111f282611190565b6111fc818561119b565b935061120c8185602086016111ac565b611215816111d6565b840191505092915050565b6000602082019050818103600083015261123a81846111e7565b905092915050565b600080fd5b600073ffffffffffffffffffffffffffffffffffffffff82169050919050565b600061127282611247565b9050919050565b61128281611267565b811461128d57600080fd5b50565b60008135905061129f81611279565b92915050565b6000819050919050565b6112b8816112a5565b81146112c357600080fd5b50565b6000813590506112d5816112af565b92915050565b600080604083850312156112f2576112f1611242565b5b600061130085828601611290565b9250506020611311858286016112c6565b9150509250929050565b60008115159050919050565b6113308161131b565b82525050565b600060208201905061134b6000830184611327565b92915050565b61135a816112a5565b82525050565b60006020820190506113756000830184611351565b92915050565b60008060006060848603121561139457611393611242565b5b60006113a286828701611290565b93505060206113b386828701611290565b92505060406113c4868287016112c6565b9150509250925092565b600061ffff82169050919050565b6113e5816113ce565b82525050565b600060208201905061140060008301846113dc565b92915050565b600060ff82169050919050565b61141c81611406565b82525050565b60006020820190506114376000830184611413565b92915050565b60006020828403121561145357611452611242565b5b600061146184828501611290565b91505092915050565b61147381611267565b82525050565b600060208201905061148e600083018461146a565b92915050565b600080604083850312156114ab576114aa611242565b5b60006114b985828601611290565b92505060206114ca85828601611290565b9150509250929050565b7f4e487b7100000000000000000000000000000000000000000000000000000000600052602260045260246000fd5b6000600282049050600182168061151b57607f821691505b60208210810361152e5761152d6114d4565b5b50919050565b7f4e487b7100000000000000000000000000000000000000000000000000000000600052601160045260246000fd5b600061156e826112a5565b9150611579836112a5565b9250828202611587816112a5565b9150828204841483151761159e5761159d611534565b5b5092915050565b60006115b0826112a5565b91506115bb836112a5565b92508282019050808211156115d3576115d2611534565b5b92915050565b7f45524332303a2064656372656173656420616c6c6f77616e63652062656c6f7760008201527f207a65726f000000000000000000000000000000000000000000000000000000602082015250565b600061163560258361119b565b9150611640826115d9565b604082019050919050565b6000602082019050818103600083015261166481611628565b9050919050565b7f4f776e61626c653a206e6577206f776e657220697320746865207a65726f206160008201527f6464726573730000000000000000000000000000000000000000000000000000602082015250565b60006116c760268361119b565b91506116d28261166b565b604082019050919050565b600060208201905081810360008301526116f6816116ba565b9050919050565b7f45524332303a20617070726f76652066726f6d20746865207a65726f2061646460008201527f7265737300000000000000000000000000000000000000000000000000000000602082015250565b600061175960248361119b565b9150611764826116fd565b604082019050919050565b600060208201905081810360008301526117888161174c565b9050919050565b7f45524332303a20617070726f766520746f20746865207a65726f20616464726560008201527f7373000000000000000000000000000000000000000000000000000000000000602082015250565b60006117eb60228361119b565b91506117f68261178f565b604082019050919050565b6000602082019050818103600083015261181a816117de565b9050919050565b7f45524332303a207472616e736665722066726f6d20746865207a65726f20616460008201527f6472657373000000000000000000000000000000000000000000000000000000602082015250565b600061187d60258361119b565b915061188882611821565b604082019050919050565b600060208201905081810360008301526118ac81611870565b9050919050565b7f45524332303a207472616e7366657220746f20746865207a65726f206164647260008201527f6573730000000000000000000000000000000000000000000000000000000000602082015250565b600061190f60238361119b565b915061191a826118b3565b604082019050919050565b6000602082019050818103600083015261193e81611902565b9050919050565b7f45524332303a207472616e7366657220616d6f756e742065786365656473206260008201527f616c616e63650000000000000000000000000000000000000000000000000000602082015250565b60006119a160268361119b565b91506119ac82611945565b604082019050919050565b600060208201905081810360008301526119d081611994565b9050919050565b7f45524332303a20696e73756666696369656e7420616c6c6f77616e6365000000600082015250565b6000611a0d601d8361119b565b9150611a18826119d7565b602082019050919050565b60006020820190508181036000830152611a3c81611a00565b9050919050565b7f4f776e61626c653a2063616c6c6572206973206e6f7420746865206f776e6572600082015250565b6000611a7960208361119b565b9150611a8482611a43565b602082019050919050565b60006020820190508181036000830152611aa881611a6c565b905091905056fea2646970667358221220b0473b49dce50b4415a78ca6163a9bf96db254281bced436c0df332d1726a24164736f6c634300081a0033608060405234801561001057600080fd5b50604051610785380380610785833981810160405281019061003291906100db565b806000806101000a81548173ffffffffffffffffffffffffffffffffffffffff021916908373ffffffffffffffffffffffffffffffffffffffff16021790555050610108565b600080fd5b600073ffffffffffffffffffffffffffffffffffffffff82169050919050565b60006100a88261007d565b9050919050565b6100b88161009d565b81146100c357600080fd5b50565b6000815190506100d5816100af565b92915050565b6000602082840312156100f1576100f0610078565b5b60006100ff848285016100c6565b91505092915050565b61066e806101176000396000f3fe608060405234801561001057600080fd5b50600436106100625760003560e01c806330edc0f5146100675780634c8dbbb314610097578063634f87b5146100b35780638ab1d681146100e357806394f3f529146100ff578063e43252d71461011b575b600080fd5b610081600480360381019061007c91906104ec565b610137565b60405161008e9190610534565b60405180910390f35b6100b160048036038101906100ac91906104ec565b6101e6565b005b6100cd60048036038101906100c891906104ec565b610275565b6040516100da9190610534565b60405180910390f35b6100fd60048036038101906100f891906104ec565b610295565b005b610119600480360381019061011491906104ec565b610348565b005b610135600480360381019061013091906104ec565b6103d7565b005b60008060009054906101000a900473ffffffffffffffffffffffffffffffffffffffff1673ffffffffffffffffffffffffffffffffffffffff163373ffffffffffffffffffffffffffffffffffffffff161461019257600080fd5b600160008373ffffffffffffffffffffffffffffffffffffffff1673ffffffffffffffffffffffffffffffffffffffff16815260200190815260200160002060009054906101000a900460ff169050919050565b600160008273ffffffffffffffffffffffffffffffffffffffff1673ffffffffffffffffffffffffffffffffffffffff16815260200190815260200160002060009054906101000a900460ff16610272576040517f08c379a0000000000000000000000000000000000000000000000000000000008152600401610269906105ac565b60405180910390fd5b50565b60016020528060005260406000206000915054906101000a900460ff1681565b60008054906101000a900473ffffffffffffffffffffffffffffffffffffffff1673ffffffffffffffffffffffffffffffffffffffff163373ffffffffffffffffffffffffffffffffffffffff16146102ed57600080fd5b6000600160008373ffffffffffffffffffffffffffffffffffffffff1673ffffffffffffffffffffffffffffffffffffffff16815260200190815260200160002060006101000a81548160ff02191690831515021790555050565b600160008273ffffffffffffffffffffffffffffffffffffffff1673ffffffffffffffffffffffffffffffffffffffff16815260200190815260200160002060009054906101000a900460ff166103d4576040517f08c379a00000000000000000000000000000000000000000000000000000000081526004016103cb90610618565b60405180910390fd5b50565b60008054906101000a900473ffffffffffffffffffffffffffffffffffffffff1673ffffffffffffffffffffffffffffffffffffffff163373ffffffffffffffffffffffffffffffffffffffff161461042f57600080fd5b60018060008373ffffffffffffffffffffffffffffffffffffffff1673ffffffffffffffffffffffffffffffffffffffff16815260200190815260200160002060006101000a81548160ff02191690831515021790555050565b600080fd5b600073ffffffffffffffffffffffffffffffffffffffff82169050919050565b60006104b98261048e565b9050919050565b6104c9816104ae565b81146104d457600080fd5b50565b6000813590506104e6816104c0565b92915050565b60006020828403121561050257610501610489565b5b6000610510848285016104d7565b91505092915050565b60008115159050919050565b61052e81610519565b82525050565b60006020820190506105496000830184610525565b92915050565b600082825260208201905092915050565b7f524543495049454e545f4e4f545f494e5f57484954454c495354000000000000600082015250565b6000610596601a8361054f565b91506105a182610560565b602082019050919050565b600060208201905081810360008301526105c581610589565b9050919050565b7f53454e4445525f4e4f545f494e5f57484954454c495354000000000000000000600082015250565b600061060260178361054f565b915061060d826105cc565b602082019050919050565b60006020820190508181036000830152610631816105f5565b905091905056fea264697066735822122075887064793c83851f72ec2394706c0df73135e7862a06be5c1b899f99060f8464736f6c634300081a0033",
  "linkReferences": {},
  "deployedLinkReferences": {}
}