{
  "_format": "hh-sol-artifact-1",
  "contractName": "DBToken",
  "sourceName": "contracts/DBToken.sol",
  "abi": [
    {
      "inputs": [
        {
          "internalType": "string",
          "name": "_tokenName",
          "type": "string"
        },
        {
          "internalType": "string",
          "name": "_tokenSymbol",
          "type": "string"
        },
        {
          "internalType": "uint256",
          "name": "_initialSupply",
          "type": "uint256"
        }
      ],
      "stateMutability": "nonpayable",
      "type": "constructor"
    },
    {
      "anonymous": false,
      "inputs": [
        {
          "indexed": true,
          "internalType": "address",
          "name": "owner",
          "type": "address"
        },
        {
          "indexed": true,
          "internalType": "address",
          "name": "spender",
          "type": "address"
        },
        {
          "indexed": false,
          "internalType": "uint256",
          "name": "value",
          "type": "uint256"
        }
      ],
      "name": "Approval",
      "type": "event"
    },
    {
      "anonymous": false,
      "inputs": [
        {
          "indexed": true,
          "internalType": "address",
          "name": "previousOwner",
          "type": "address"
        },
        {
          "indexed": true,
          "internalType": "address",
          "name": "newOwner",
          "type": "address"
        }
      ],
      "name": "OwnershipTransferred",
      "type": "event"
    },
    {
      "anonymous": false,
      "inputs": [
        {
          "indexed": true,
          "internalType": "address",
          "name": "from",
          "type": "address"
        },
        {
          "indexed": true,
          "internalType": "address",
          "name": "to",
          "type": "address"
        },
        {
          "indexed": false,
          "internalType": "uint256",
          "name": "value",
          "type": "uint256"
        }
      ],
      "name": "Transfer",
      "type": "event"
    },
    {
      "inputs": [
        {
          "internalType": "address",
          "name": "addAddress",
          "type": "address"
        }
      ],
      "name": "addToWhitelist",
      "outputs": [],
      "stateMutability": "nonpayable",
      "type": "function"
    },
    {
      "inputs": [
        {
          "internalType": "address",
          "name": "owner",
          "type": "address"
        },
        {
          "internalType": "address",
          "name": "spender",
          "type": "address"
        }
      ],
      "name": "allowance",
      "outputs": [
        {
          "internalType": "uint256",
          "name": "",
          "type": "uint256"
        }
      ],
      "stateMutability": "view",
      "type": "function"
    },
    {
      "inputs": [
        {
          "internalType": "address",
          "name": "spender",
          "type": "address"
        },
        {
          "internalType": "uint256",
          "name": "amount",
          "type": "uint256"
        }
      ],
      "name": "approve",
      "outputs": [
        {
          "internalType": "bool",
          "name": "",
          "type": "bool"
        }
      ],
      "stateMutability": "nonpayable",
      "type": "function"
    },
    {
      "inputs": [
        {
          "internalType": "address",
          "name": "account",
          "type": "address"
        }
      ],
      "name": "balanceOf",
      "outputs": [
        {
          "internalType": "uint256",
          "name": "",
          "type": "uint256"
        }
      ],
      "stateMutability": "view",
      "type": "function"
    },
    {
      "inputs": [],
      "name": "decimals",
      "outputs": [
        {
          "internalType": "uint8",
          "name": "",
          "type": "uint8"
        }
      ],
      "stateMutability": "view",
      "type": "function"
    },
    {
      "inputs": [
        {
          "internalType": "address",
          "name": "spender",
          "type": "address"
        },
        {
          "internalType": "uint256",
          "name": "subtractedValue",
          "type": "uint256"
        }
      ],
      "name": "decreaseAllowance",
      "outputs": [
        {
          "internalType": "bool",
          "name": "",
          "type": "bool"
        }
      ],
      "stateMutability": "nonpayable",
      "type": "function"
    },
    {
      "inputs": [
        {
          "internalType": "address",
          "name": "",
          "type": "address"
        }
      ],
      "name": "generalWhitelist",
      "outputs": [
        {
          "internalType": "bool",
          "name": "",
          "type": "bool"
        }
      ],
      "stateMutability": "view",
      "type": "function"
    },
    {
      "inputs": [
        {
          "internalType": "address",
          "name": "spender",
          "type": "address"
        },
        {
          "internalType": "uint256",
          "name": "addedValue",
          "type": "uint256"
        }
      ],
      "name": "increaseAllowance",
      "outputs": [
        {
          "internalType": "bool",
          "name": "",
          "type": "bool"
        }
      ],
      "stateMutability": "nonpayable",
      "type": "function"
    },
    {
      "inputs": [],
      "name": "name",
      "outputs": [
        {
          "internalType": "string",
          "name": "",
          "type": "string"
        }
      ],
      "stateMutability": "view",
      "type": "function"
    },
    {
      "inputs": [],
      "name": "owner",
      "outputs": [
        {
          "internalType": "address",
          "name": "",
          "type": "address"
        }
      ],
      "stateMutability": "view",
      "type": "function"
    },
    {
      "inputs": [
        {
          "internalType": "address",
          "name": "removeAddress",
          "type": "address"
        }
      ],
      "name": "removeFromWhitelist",
      "outputs": [],
      "stateMutability": "nonpayable",
      "type": "function"
    },
    {
      "inputs": [],
      "name": "renounceOwnership",
      "outputs": [],
      "stateMutability": "nonpayable",
      "type": "function"
    },
    {
      "inputs": [],
      "name": "symbol",
      "outputs": [
        {
          "internalType": "string",
          "name": "",
          "type": "string"
        }
      ],
      "stateMutability": "view",
      "type": "function"
    },
    {
      "inputs": [],
      "name": "totalSupply",
      "outputs": [
        {
          "internalType": "uint256",
          "name": "",
          "type": "uint256"
        }
      ],
      "stateMutability": "view",
      "type": "function"
    },
    {
      "inputs": [
        {
          "internalType": "address",
          "name": "to",
          "type": "address"
        },
        {
          "internalType": "uint256",
          "name": "amount",
          "type": "uint256"
        }
      ],
      "name": "transfer",
      "outputs": [
        {
          "internalType": "bool",
          "name": "",
          "type": "bool"
        }
      ],
      "stateMutability": "nonpayable",
      "type": "function"
    },
    {
      "inputs": [
        {
          "internalType": "address",
          "name": "from",
          "type": "address"
        },
        {
          "internalType": "address",
          "name": "to",
          "type": "address"
        },
        {
          "internalType": "uint256",
          "name": "amount",
          "type": "uint256"
        }
      ],
      "name": "transferFrom",
      "outputs": [
        {
          "internalType": "bool",
          "name": "",
          "type": "bool"
        }
      ],
      "stateMutability": "nonpayable",
      "type": "function"
    },
    {
      "inputs": [
        {
          "internalType": "address",
          "name": "newOwner",
          "type": "address"
        }
      ],
      "name": "transferOwnership",
      "outputs": [],
      "stateMutability": "nonpayable",
      "type": "function"
    },
    {
      "inputs": [
        {
          "internalType": "address",
          "name": "_toAddress",
          "type": "address"
        },
        {
          "internalType": "uint256",
          "name": "_amount",
          "type": "uint256"
        }
      ],
      "name": "transferToken",
      "outputs": [
        {
          "internalType": "bool",
          "name": "",
          "type": "bool"
        }
      ],
      "stateMutability": "nonpayable",
      "type": "function"
    }
  ],
  "bytecode": "0x608060405234801561001057600080fd5b5060405161214838038061214883398181016040528101906100329190610482565b828281600390816100439190610724565b5080600490816100539190610724565b50505061007261006761009d60201b60201c565b6100a560201b60201c565b61009533670de0b6b3a76400008361008a9190610825565b61016b60201b60201c565b505050610942565b600033905090565b6000600560009054906101000a900473ffffffffffffffffffffffffffffffffffffffff16905081600560006101000a81548173ffffffffffffffffffffffffffffffffffffffff021916908373ffffffffffffffffffffffffffffffffffffffff1602179055508173ffffffffffffffffffffffffffffffffffffffff168173ffffffffffffffffffffffffffffffffffffffff167f8be0079c531659141344cd1fd0a4f28419497f9722a3daafe3b4186f6b6457e060405160405180910390a35050565b600073ffffffffffffffffffffffffffffffffffffffff168273ffffffffffffffffffffffffffffffffffffffff16036101da576040517f08c379a00000000000000000000000000000000000000000000000000000000081526004016101d1906108c4565b60405180910390fd5b6101ec600083836102cd60201b60201c565b80600260008282546101fe91906108e4565b92505081905550806000808473ffffffffffffffffffffffffffffffffffffffff1673ffffffffffffffffffffffffffffffffffffffff168152602001908152602001600020600082825401925050819055508173ffffffffffffffffffffffffffffffffffffffff16600073ffffffffffffffffffffffffffffffffffffffff167fddf252ad1be2c89b69c2b068fc378daa952ba7f163c4a11628f55a4df523b3ef836040516102af9190610927565b60405180910390a36102c9600083836102d260201b60201c565b5050565b505050565b505050565b6000604051905090565b600080fd5b600080fd5b600080fd5b600080fd5b6000601f19601f8301169050919050565b7f4e487b7100000000000000000000000000000000000000000000000000000000600052604160045260246000fd5b61033e826102f5565b810181811067ffffffffffffffff8211171561035d5761035c610306565b5b80604052505050565b60006103706102d7565b905061037c8282610335565b919050565b600067ffffffffffffffff82111561039c5761039b610306565b5b6103a5826102f5565b9050602081019050919050565b60005b838110156103d05780820151818401526020810190506103b5565b60008484015250505050565b60006103ef6103ea84610381565b610366565b90508281526020810184848401111561040b5761040a6102f0565b5b6104168482856103b2565b509392505050565b600082601f830112610433576104326102eb565b5b81516104438482602086016103dc565b91505092915050565b6000819050919050565b61045f8161044c565b811461046a57600080fd5b50565b60008151905061047c81610456565b92915050565b60008060006060848603121561049b5761049a6102e1565b5b600084015167ffffffffffffffff8111156104b9576104b86102e6565b5b6104c58682870161041e565b935050602084015167ffffffffffffffff8111156104e6576104e56102e6565b5b6104f28682870161041e565b92505060406105038682870161046d565b9150509250925092565b600081519050919050565b7f4e487b7100000000000000000000000000000000000000000000000000000000600052602260045260246000fd5b6000600282049050600182168061055f57607f821691505b60208210810361057257610571610518565b5b50919050565b60008190508160005260206000209050919050565b60006020601f8301049050919050565b600082821b905092915050565b6000600883026105da7fffffffffffffffffffffffffffffffffffffffffffffffffffffffffffffffff8261059d565b6105e4868361059d565b95508019841693508086168417925050509392505050565b6000819050919050565b600061062161061c6106178461044c565b6105fc565b61044c565b9050919050565b6000819050919050565b61063b83610606565b61064f61064782610628565b8484546105aa565b825550505050565b600090565b610664610657565b61066f818484610632565b505050565b5b818110156106935761068860008261065c565b600181019050610675565b5050565b601f8211156106d8576106a981610578565b6106b28461058d565b810160208510156106c1578190505b6106d56106cd8561058d565b830182610674565b50505b505050565b600082821c905092915050565b60006106fb600019846008026106dd565b1980831691505092915050565b600061071483836106ea565b9150826002028217905092915050565b61072d8261050d565b67ffffffffffffffff81111561074657610745610306565b5b6107508254610547565b61075b828285610697565b600060209050601f83116001811461078e576000841561077c578287015190505b6107868582610708565b8655506107ee565b601f19841661079c86610578565b60005b828110156107c45784890151825560018201915060208501945060208101905061079f565b868310156107e157848901516107dd601f8916826106ea565b8355505b6001600288020188555050505b505050505050565b7f4e487b7100000000000000000000000000000000000000000000000000000000600052601160045260246000fd5b60006108308261044c565b915061083b8361044c565b92508282026108498161044c565b915082820484148315176108605761085f6107f6565b5b5092915050565b600082825260208201905092915050565b7f45524332303a206d696e7420746f20746865207a65726f206164647265737300600082015250565b60006108ae601f83610867565b91506108b982610878565b602082019050919050565b600060208201905081810360008301526108dd816108a1565b9050919050565b60006108ef8261044c565b91506108fa8361044c565b9250828201905080821115610912576109116107f6565b5b92915050565b6109218161044c565b82525050565b600060208201905061093c6000830184610918565b92915050565b6117f7806109516000396000f3fe608060405234801561001057600080fd5b50600436106101165760003560e01c8063715018a6116100a2578063a457c2d711610071578063a457c2d7146102f7578063a9059cbb14610327578063dd62ed3e14610357578063e43252d714610387578063f2fde38b146103a357610116565b8063715018a6146102955780638ab1d6811461029f5780638da5cb5b146102bb57806395d89b41146102d957610116565b806323b872dd116100e957806323b872dd146101b7578063313ce567146101e75780633950935114610205578063634f87b51461023557806370a082311461026557610116565b806306fdde031461011b578063095ea7b3146101395780631072cbea1461016957806318160ddd14610199575b600080fd5b6101236103bf565b6040516101309190610f6a565b60405180910390f35b610153600480360381019061014e9190611025565b610451565b6040516101609190611080565b60405180910390f35b610183600480360381019061017e9190611025565b610474565b6040516101909190611080565b60405180910390f35b6101a161049e565b6040516101ae91906110aa565b60405180910390f35b6101d160048036038101906101cc91906110c5565b6104a8565b6040516101de9190611080565b60405180910390f35b6101ef6104d7565b6040516101fc9190611134565b60405180910390f35b61021f600480360381019061021a9190611025565b6104e0565b60405161022c9190611080565b60405180910390f35b61024f600480360381019061024a919061114f565b610517565b60405161025c9190611080565b60405180910390f35b61027f600480360381019061027a919061114f565b610537565b60405161028c91906110aa565b60405180910390f35b61029d61057f565b005b6102b960048036038101906102b4919061114f565b610593565b005b6102c36105f6565b6040516102d0919061118b565b60405180910390f35b6102e1610620565b6040516102ee9190610f6a565b60405180910390f35b610311600480360381019061030c9190611025565b6106b2565b60405161031e9190611080565b60405180910390f35b610341600480360381019061033c9190611025565b610729565b60405161034e9190611080565b60405180910390f35b610371600480360381019061036c91906111a6565b61074c565b60405161037e91906110aa565b60405180910390f35b6103a1600480360381019061039c919061114f565b6107d3565b005b6103bd60048036038101906103b8919061114f565b610836565b005b6060600380546103ce90611215565b80601f01602080910402602001604051908101604052809291908181526020018280546103fa90611215565b80156104475780601f1061041c57610100808354040283529160200191610447565b820191906000526020600020905b81548152906001019060200180831161042a57829003601f168201915b5050505050905090565b60008061045c6108b9565b90506104698185856108c1565b600191505092915050565b60006104943384670de0b6b3a76400008561048f9190611275565b610a8a565b6001905092915050565b6000600254905090565b6000806104b36108b9565b90506104c0858285610d00565b6104cb858585610a8a565b60019150509392505050565b60006012905090565b6000806104eb6108b9565b905061050c8185856104fd858961074c565b61050791906112b7565b6108c1565b600191505092915050565b60066020528060005260406000206000915054906101000a900460ff1681565b60008060008373ffffffffffffffffffffffffffffffffffffffff1673ffffffffffffffffffffffffffffffffffffffff168152602001908152602001600020549050919050565b610587610d8c565b6105916000610e0a565b565b61059b610d8c565b6000600660008373ffffffffffffffffffffffffffffffffffffffff1673ffffffffffffffffffffffffffffffffffffffff16815260200190815260200160002060006101000a81548160ff02191690831515021790555050565b6000600560009054906101000a900473ffffffffffffffffffffffffffffffffffffffff16905090565b60606004805461062f90611215565b80601f016020809104026020016040519081016040528092919081815260200182805461065b90611215565b80156106a85780601f1061067d576101008083540402835291602001916106a8565b820191906000526020600020905b81548152906001019060200180831161068b57829003601f168201915b5050505050905090565b6000806106bd6108b9565b905060006106cb828661074c565b905083811015610710576040517f08c379a00000000000000000000000000000000000000000000000000000000081526004016107079061135d565b60405180910390fd5b61071d82868684036108c1565b60019250505092915050565b6000806107346108b9565b9050610741818585610a8a565b600191505092915050565b6000600160008473ffffffffffffffffffffffffffffffffffffffff1673ffffffffffffffffffffffffffffffffffffffff16815260200190815260200160002060008373ffffffffffffffffffffffffffffffffffffffff1673ffffffffffffffffffffffffffffffffffffffff16815260200190815260200160002054905092915050565b6107db610d8c565b6001600660008373ffffffffffffffffffffffffffffffffffffffff1673ffffffffffffffffffffffffffffffffffffffff16815260200190815260200160002060006101000a81548160ff02191690831515021790555050565b61083e610d8c565b600073ffffffffffffffffffffffffffffffffffffffff168173ffffffffffffffffffffffffffffffffffffffff16036108ad576040517f08c379a00000000000000000000000000000000000000000000000000000000081526004016108a4906113ef565b60405180910390fd5b6108b681610e0a565b50565b600033905090565b600073ffffffffffffffffffffffffffffffffffffffff168373ffffffffffffffffffffffffffffffffffffffff1603610930576040517f08c379a000000000000000000000000000000000000000000000000000000000815260040161092790611481565b60405180910390fd5b600073ffffffffffffffffffffffffffffffffffffffff168273ffffffffffffffffffffffffffffffffffffffff160361099f576040517f08c379a000000000000000000000000000000000000000000000000000000000815260040161099690611513565b60405180910390fd5b80600160008573ffffffffffffffffffffffffffffffffffffffff1673ffffffffffffffffffffffffffffffffffffffff16815260200190815260200160002060008473ffffffffffffffffffffffffffffffffffffffff1673ffffffffffffffffffffffffffffffffffffffff168152602001908152602001600020819055508173ffffffffffffffffffffffffffffffffffffffff168373ffffffffffffffffffffffffffffffffffffffff167f8c5be1e5ebec7d5bd14f71427d1e84f3dd0314c0f7b2291e5b200ac8c7c3b92583604051610a7d91906110aa565b60405180910390a3505050565b600073ffffffffffffffffffffffffffffffffffffffff168373ffffffffffffffffffffffffffffffffffffffff1603610af9576040517f08c379a0000000000000000000000000000000000000000000000000000000008152600401610af0906115a5565b60405180910390fd5b600073ffffffffffffffffffffffffffffffffffffffff168273ffffffffffffffffffffffffffffffffffffffff1603610b68576040517f08c379a0000000000000000000000000000000000000000000000000000000008152600401610b5f90611637565b60405180910390fd5b610b73838383610ed0565b60008060008573ffffffffffffffffffffffffffffffffffffffff1673ffffffffffffffffffffffffffffffffffffffff16815260200190815260200160002054905081811015610bf9576040517f08c379a0000000000000000000000000000000000000000000000000000000008152600401610bf0906116c9565b60405180910390fd5b8181036000808673ffffffffffffffffffffffffffffffffffffffff1673ffffffffffffffffffffffffffffffffffffffff16815260200190815260200160002081905550816000808573ffffffffffffffffffffffffffffffffffffffff1673ffffffffffffffffffffffffffffffffffffffff168152602001908152602001600020600082825401925050819055508273ffffffffffffffffffffffffffffffffffffffff168473ffffffffffffffffffffffffffffffffffffffff167fddf252ad1be2c89b69c2b068fc378daa952ba7f163c4a11628f55a4df523b3ef84604051610ce791906110aa565b60405180910390a3610cfa848484610ed5565b50505050565b6000610d0c848461074c565b90507fffffffffffffffffffffffffffffffffffffffffffffffffffffffffffffffff8114610d865781811015610d78576040517f08c379a0000000000000000000000000000000000000000000000000000000008152600401610d6f90611735565b60405180910390fd5b610d8584848484036108c1565b5b50505050565b610d946108b9565b73ffffffffffffffffffffffffffffffffffffffff16610db26105f6565b73ffffffffffffffffffffffffffffffffffffffff1614610e08576040517f08c379a0000000000000000000000000000000000000000000000000000000008152600401610dff906117a1565b60405180910390fd5b565b6000600560009054906101000a900473ffffffffffffffffffffffffffffffffffffffff16905081600560006101000a81548173ffffffffffffffffffffffffffffffffffffffff021916908373ffffffffffffffffffffffffffffffffffffffff1602179055508173ffffffffffffffffffffffffffffffffffffffff168173ffffffffffffffffffffffffffffffffffffffff167f8be0079c531659141344cd1fd0a4f28419497f9722a3daafe3b4186f6b6457e060405160405180910390a35050565b505050565b505050565b600081519050919050565b600082825260208201905092915050565b60005b83811015610f14578082015181840152602081019050610ef9565b60008484015250505050565b6000601f19601f8301169050919050565b6000610f3c82610eda565b610f468185610ee5565b9350610f56818560208601610ef6565b610f5f81610f20565b840191505092915050565b60006020820190508181036000830152610f848184610f31565b905092915050565b600080fd5b600073ffffffffffffffffffffffffffffffffffffffff82169050919050565b6000610fbc82610f91565b9050919050565b610fcc81610fb1565b8114610fd757600080fd5b50565b600081359050610fe981610fc3565b92915050565b6000819050919050565b61100281610fef565b811461100d57600080fd5b50565b60008135905061101f81610ff9565b92915050565b6000806040838503121561103c5761103b610f8c565b5b600061104a85828601610fda565b925050602061105b85828601611010565b9150509250929050565b60008115159050919050565b61107a81611065565b82525050565b60006020820190506110956000830184611071565b92915050565b6110a481610fef565b82525050565b60006020820190506110bf600083018461109b565b92915050565b6000806000606084860312156110de576110dd610f8c565b5b60006110ec86828701610fda565b93505060206110fd86828701610fda565b925050604061110e86828701611010565b9150509250925092565b600060ff82169050919050565b61112e81611118565b82525050565b60006020820190506111496000830184611125565b92915050565b60006020828403121561116557611164610f8c565b5b600061117384828501610fda565b91505092915050565b61118581610fb1565b82525050565b60006020820190506111a0600083018461117c565b92915050565b600080604083850312156111bd576111bc610f8c565b5b60006111cb85828601610fda565b92505060206111dc85828601610fda565b9150509250929050565b7f4e487b7100000000000000000000000000000000000000000000000000000000600052602260045260246000fd5b6000600282049050600182168061122d57607f821691505b6020821081036112405761123f6111e6565b5b50919050565b7f4e487b7100000000000000000000000000000000000000000000000000000000600052601160045260246000fd5b600061128082610fef565b915061128b83610fef565b925082820261129981610fef565b915082820484148315176112b0576112af611246565b5b5092915050565b60006112c282610fef565b91506112cd83610fef565b92508282019050808211156112e5576112e4611246565b5b92915050565b7f45524332303a2064656372656173656420616c6c6f77616e63652062656c6f7760008201527f207a65726f000000000000000000000000000000000000000000000000000000602082015250565b6000611347602583610ee5565b9150611352826112eb565b604082019050919050565b600060208201905081810360008301526113768161133a565b9050919050565b7f4f776e61626c653a206e6577206f776e657220697320746865207a65726f206160008201527f6464726573730000000000000000000000000000000000000000000000000000602082015250565b60006113d9602683610ee5565b91506113e48261137d565b604082019050919050565b60006020820190508181036000830152611408816113cc565b9050919050565b7f45524332303a20617070726f76652066726f6d20746865207a65726f2061646460008201527f7265737300000000000000000000000000000000000000000000000000000000602082015250565b600061146b602483610ee5565b91506114768261140f565b604082019050919050565b6000602082019050818103600083015261149a8161145e565b9050919050565b7f45524332303a20617070726f766520746f20746865207a65726f20616464726560008201527f7373000000000000000000000000000000000000000000000000000000000000602082015250565b60006114fd602283610ee5565b9150611508826114a1565b604082019050919050565b6000602082019050818103600083015261152c816114f0565b9050919050565b7f45524332303a207472616e736665722066726f6d20746865207a65726f20616460008201527f6472657373000000000000000000000000000000000000000000000000000000602082015250565b600061158f602583610ee5565b915061159a82611533565b604082019050919050565b600060208201905081810360008301526115be81611582565b9050919050565b7f45524332303a207472616e7366657220746f20746865207a65726f206164647260008201527f6573730000000000000000000000000000000000000000000000000000000000602082015250565b6000611621602383610ee5565b915061162c826115c5565b604082019050919050565b6000602082019050818103600083015261165081611614565b9050919050565b7f45524332303a207472616e7366657220616d6f756e742065786365656473206260008201527f616c616e63650000000000000000000000000000000000000000000000000000602082015250565b60006116b3602683610ee5565b91506116be82611657565b604082019050919050565b600060208201905081810360008301526116e2816116a6565b9050919050565b7f45524332303a20696e73756666696369656e7420616c6c6f77616e6365000000600082015250565b600061171f601d83610ee5565b915061172a826116e9565b602082019050919050565b6000602082019050818103600083015261174e81611712565b9050919050565b7f4f776e61626c653a2063616c6c6572206973206e6f7420746865206f776e6572600082015250565b600061178b602083610ee5565b915061179682611755565b602082019050919050565b600060208201905081810360008301526117ba8161177e565b905091905056fea26469706673582212207268fb679f7f738f4330f196ab2a8ad220d16770bbb740af902823020e7d9d3064736f6c634300081a0033",
  "linkReferences": {},
  "deployedLinkReferences": {}
}