{
  "_format": "hh-sol-artifact-1",
  "contractName": "DBToken",
  "sourceName": "contracts/DBToken.sol",
  "abi": [
    {
      "inputs": [
        {
          "internalType": "string",
          "name": "_tokenName",
          "type": "string"
        },
        {
          "internalType": "string",
          "name": "_tokenSymbol",
          "type": "string"
        },
        {
          "internalType": "uint256",
          "name": "_initialSupply",
          "type": "uint256"
        }
      ],
      "stateMutability": "nonpayable",
      "type": "constructor"
    },
    {
      "anonymous": false,
      "inputs": [
        {
          "indexed": true,
          "internalType": "address",
          "name": "owner",
          "type": "address"
        },
        {
          "indexed": true,
          "internalType": "address",
          "name": "spender",
          "type": "address"
        },
        {
          "indexed": false,
          "internalType": "uint256",
          "name": "value",
          "type": "uint256"
        }
      ],
      "name": "Approval",
      "type": "event"
    },
    {
      "anonymous": false,
      "inputs": [
        {
          "indexed": true,
          "internalType": "address",
          "name": "previousOwner",
          "type": "address"
        },
        {
          "indexed": true,
          "internalType": "address",
          "name": "newOwner",
          "type": "address"
        }
      ],
      "name": "OwnershipTransferred",
      "type": "event"
    },
    {
      "anonymous": false,
      "inputs": [
        {
          "indexed": true,
          "internalType": "address",
          "name": "from",
          "type": "address"
        },
        {
          "indexed": true,
          "internalType": "address",
          "name": "to",
          "type": "address"
        },
        {
          "indexed": false,
          "internalType": "uint256",
          "name": "value",
          "type": "uint256"
        }
      ],
      "name": "Transfer",
      "type": "event"
    },
    {
      "inputs": [
        {
          "internalType": "address",
          "name": "addAddress",
          "type": "address"
        }
      ],
      "name": "addToWhitelist",
      "outputs": [],
      "stateMutability": "nonpayable",
      "type": "function"
    },
    {
      "inputs": [
        {
          "internalType": "address",
          "name": "owner",
          "type": "address"
        },
        {
          "internalType": "address",
          "name": "spender",
          "type": "address"
        }
      ],
      "name": "allowance",
      "outputs": [
        {
          "internalType": "uint256",
          "name": "",
          "type": "uint256"
        }
      ],
      "stateMutability": "view",
      "type": "function"
    },
    {
      "inputs": [
        {
          "internalType": "address",
          "name": "spender",
          "type": "address"
        },
        {
          "internalType": "uint256",
          "name": "amount",
          "type": "uint256"
        }
      ],
      "name": "approve",
      "outputs": [
        {
          "internalType": "bool",
          "name": "",
          "type": "bool"
        }
      ],
      "stateMutability": "nonpayable",
      "type": "function"
    },
    {
      "inputs": [
        {
          "internalType": "address",
          "name": "account",
          "type": "address"
        }
      ],
      "name": "balanceOf",
      "outputs": [
        {
          "internalType": "uint256",
          "name": "",
          "type": "uint256"
        }
      ],
      "stateMutability": "view",
      "type": "function"
    },
    {
      "inputs": [
        {
          "internalType": "uint256",
          "name": "amount",
          "type": "uint256"
        }
      ],
      "name": "burn",
      "outputs": [],
      "stateMutability": "nonpayable",
      "type": "function"
    },
    {
      "inputs": [
        {
          "internalType": "address",
          "name": "account",
          "type": "address"
        },
        {
          "internalType": "uint256",
          "name": "amount",
          "type": "uint256"
        }
      ],
      "name": "burnFrom",
      "outputs": [],
      "stateMutability": "nonpayable",
      "type": "function"
    },
    {
      "inputs": [],
      "name": "decimals",
      "outputs": [
        {
          "internalType": "uint8",
          "name": "",
          "type": "uint8"
        }
      ],
      "stateMutability": "view",
      "type": "function"
    },
    {
      "inputs": [
        {
          "internalType": "address",
          "name": "spender",
          "type": "address"
        },
        {
          "internalType": "uint256",
          "name": "subtractedValue",
          "type": "uint256"
        }
      ],
      "name": "decreaseAllowance",
      "outputs": [
        {
          "internalType": "bool",
          "name": "",
          "type": "bool"
        }
      ],
      "stateMutability": "nonpayable",
      "type": "function"
    },
    {
      "inputs": [
        {
          "internalType": "address",
          "name": "",
          "type": "address"
        }
      ],
      "name": "generalWhitelist",
      "outputs": [
        {
          "internalType": "bool",
          "name": "",
          "type": "bool"
        }
      ],
      "stateMutability": "view",
      "type": "function"
    },
    {
      "inputs": [
        {
          "internalType": "address",
          "name": "spender",
          "type": "address"
        },
        {
          "internalType": "uint256",
          "name": "addedValue",
          "type": "uint256"
        }
      ],
      "name": "increaseAllowance",
      "outputs": [
        {
          "internalType": "bool",
          "name": "",
          "type": "bool"
        }
      ],
      "stateMutability": "nonpayable",
      "type": "function"
    },
    {
      "inputs": [],
      "name": "initialSupply",
      "outputs": [
        {
          "internalType": "uint256",
          "name": "",
          "type": "uint256"
        }
      ],
      "stateMutability": "view",
      "type": "function"
    },
    {
      "inputs": [],
      "name": "mint",
      "outputs": [
        {
          "internalType": "bool",
          "name": "",
          "type": "bool"
        }
      ],
      "stateMutability": "nonpayable",
      "type": "function"
    },
    {
      "inputs": [],
      "name": "name",
      "outputs": [
        {
          "internalType": "string",
          "name": "",
          "type": "string"
        }
      ],
      "stateMutability": "view",
      "type": "function"
    },
    {
      "inputs": [],
      "name": "owner",
      "outputs": [
        {
          "internalType": "address",
          "name": "",
          "type": "address"
        }
      ],
      "stateMutability": "view",
      "type": "function"
    },
    {
      "inputs": [
        {
          "internalType": "address",
          "name": "removeAddress",
          "type": "address"
        }
      ],
      "name": "removeFromWhitelist",
      "outputs": [],
      "stateMutability": "nonpayable",
      "type": "function"
    },
    {
      "inputs": [],
      "name": "renounceOwnership",
      "outputs": [],
      "stateMutability": "nonpayable",
      "type": "function"
    },
    {
      "inputs": [],
      "name": "symbol",
      "outputs": [
        {
          "internalType": "string",
          "name": "",
          "type": "string"
        }
      ],
      "stateMutability": "view",
      "type": "function"
    },
    {
      "inputs": [],
      "name": "tokenName",
      "outputs": [
        {
          "internalType": "string",
          "name": "",
          "type": "string"
        }
      ],
      "stateMutability": "view",
      "type": "function"
    },
    {
      "inputs": [],
      "name": "tokenSymbol",
      "outputs": [
        {
          "internalType": "string",
          "name": "",
          "type": "string"
        }
      ],
      "stateMutability": "view",
      "type": "function"
    },
    {
      "inputs": [],
      "name": "totalSupply",
      "outputs": [
        {
          "internalType": "uint256",
          "name": "",
          "type": "uint256"
        }
      ],
      "stateMutability": "view",
      "type": "function"
    },
    {
      "inputs": [
        {
          "internalType": "address",
          "name": "to",
          "type": "address"
        },
        {
          "internalType": "uint256",
          "name": "amount",
          "type": "uint256"
        }
      ],
      "name": "transfer",
      "outputs": [
        {
          "internalType": "bool",
          "name": "",
          "type": "bool"
        }
      ],
      "stateMutability": "nonpayable",
      "type": "function"
    },
    {
      "inputs": [
        {
          "internalType": "address",
          "name": "from",
          "type": "address"
        },
        {
          "internalType": "address",
          "name": "to",
          "type": "address"
        },
        {
          "internalType": "uint256",
          "name": "amount",
          "type": "uint256"
        }
      ],
      "name": "transferFrom",
      "outputs": [
        {
          "internalType": "bool",
          "name": "",
          "type": "bool"
        }
      ],
      "stateMutability": "nonpayable",
      "type": "function"
    },
    {
      "inputs": [
        {
          "internalType": "address",
          "name": "newOwner",
          "type": "address"
        }
      ],
      "name": "transferOwnership",
      "outputs": [],
      "stateMutability": "nonpayable",
      "type": "function"
    },
    {
      "inputs": [
        {
          "internalType": "address",
          "name": "_toAddress",
          "type": "address"
        },
        {
          "internalType": "uint256",
          "name": "_amount",
          "type": "uint256"
        }
      ],
      "name": "transferToken",
      "outputs": [
        {
          "internalType": "bool",
          "name": "",
          "type": "bool"
        }
      ],
      "stateMutability": "nonpayable",
      "type": "function"
    },
    {
      "inputs": [
        {
          "internalType": "address",
          "name": "_address",
          "type": "address"
        }
      ],
      "name": "viewBalance",
      "outputs": [
        {
          "internalType": "uint256",
          "name": "",
          "type": "uint256"
        }
      ],
      "stateMutability": "view",
      "type": "function"
    }
  ],
  "bytecode": "0x608060405234801561001057600080fd5b506040516128363803806128368339818101604052810190610032919061035b565b8282816003908161004391906105fd565b50806004908161005391906105fd565b5050506100726100676100e260201b60201c565b6100ea60201b60201c565b826007908161008191906105fd565b50816008908161009191906105fd565b508060098190555033600a60006101000a81548173ffffffffffffffffffffffffffffffffffffffff021916908373ffffffffffffffffffffffffffffffffffffffff1602179055505050506106cf565b600033905090565b6000600560009054906101000a900473ffffffffffffffffffffffffffffffffffffffff16905081600560006101000a81548173ffffffffffffffffffffffffffffffffffffffff021916908373ffffffffffffffffffffffffffffffffffffffff1602179055508173ffffffffffffffffffffffffffffffffffffffff168173ffffffffffffffffffffffffffffffffffffffff167f8be0079c531659141344cd1fd0a4f28419497f9722a3daafe3b4186f6b6457e060405160405180910390a35050565b6000604051905090565b600080fd5b600080fd5b600080fd5b600080fd5b6000601f19601f8301169050919050565b7f4e487b7100000000000000000000000000000000000000000000000000000000600052604160045260246000fd5b610217826101ce565b810181811067ffffffffffffffff82111715610236576102356101df565b5b80604052505050565b60006102496101b0565b9050610255828261020e565b919050565b600067ffffffffffffffff821115610275576102746101df565b5b61027e826101ce565b9050602081019050919050565b60005b838110156102a957808201518184015260208101905061028e565b60008484015250505050565b60006102c86102c38461025a565b61023f565b9050828152602081018484840111156102e4576102e36101c9565b5b6102ef84828561028b565b509392505050565b600082601f83011261030c5761030b6101c4565b5b815161031c8482602086016102b5565b91505092915050565b6000819050919050565b61033881610325565b811461034357600080fd5b50565b6000815190506103558161032f565b92915050565b600080600060608486031215610374576103736101ba565b5b600084015167ffffffffffffffff811115610392576103916101bf565b5b61039e868287016102f7565b935050602084015167ffffffffffffffff8111156103bf576103be6101bf565b5b6103cb868287016102f7565b92505060406103dc86828701610346565b9150509250925092565b600081519050919050565b7f4e487b7100000000000000000000000000000000000000000000000000000000600052602260045260246000fd5b6000600282049050600182168061043857607f821691505b60208210810361044b5761044a6103f1565b5b50919050565b60008190508160005260206000209050919050565b60006020601f8301049050919050565b600082821b905092915050565b6000600883026104b37fffffffffffffffffffffffffffffffffffffffffffffffffffffffffffffffff82610476565b6104bd8683610476565b95508019841693508086168417925050509392505050565b6000819050919050565b60006104fa6104f56104f084610325565b6104d5565b610325565b9050919050565b6000819050919050565b610514836104df565b61052861052082610501565b848454610483565b825550505050565b600090565b61053d610530565b61054881848461050b565b505050565b5b8181101561056c57610561600082610535565b60018101905061054e565b5050565b601f8211156105b15761058281610451565b61058b84610466565b8101602085101561059a578190505b6105ae6105a685610466565b83018261054d565b50505b505050565b600082821c905092915050565b60006105d4600019846008026105b6565b1980831691505092915050565b60006105ed83836105c3565b9150826002028217905092915050565b610606826103e6565b67ffffffffffffffff81111561061f5761061e6101df565b5b6106298254610420565b610634828285610570565b600060209050601f8311600181146106675760008415610655578287015190505b61065f85826105e1565b8655506106c7565b601f19841661067586610451565b60005b8281101561069d57848901518255600182019150602085019450602081019050610678565b868310156106ba57848901516106b6601f8916826105c3565b8355505b6001600288020188555050505b505050505050565b612158806106de6000396000f3fe608060405234801561001057600080fd5b50600436106101735760003560e01c806370a08231116100de57806395d89b4111610097578063c1a13d1a11610071578063c1a13d1a14610464578063dd62ed3e14610494578063e43252d7146104c4578063f2fde38b146104e057610173565b806395d89b41146103e6578063a457c2d714610404578063a9059cbb1461043457610173565b806370a0823114610338578063715018a61461036857806379cc6790146103725780637b61c3201461038e5780638ab1d681146103ac5780638da5cb5b146103c857610173565b8063313ce56711610130578063313ce56714610262578063378dc3dc14610280578063395093511461029e57806342966c68146102ce578063634f87b5146102ea5780636c02a9311461031a57610173565b806306fdde0314610178578063095ea7b3146101965780631072cbea146101c65780631249c58b146101f657806318160ddd1461021457806323b872dd14610232575b600080fd5b6101806104fc565b60405161018d9190611678565b60405180910390f35b6101b060048036038101906101ab9190611733565b61058e565b6040516101bd919061178e565b60405180910390f35b6101e060048036038101906101db9190611733565b6105b1565b6040516101ed919061178e565b60405180910390f35b6101fe6106e2565b60405161020b919061178e565b60405180910390f35b61021c610721565b60405161022991906117b8565b60405180910390f35b61024c600480360381019061024791906117d3565b61072b565b604051610259919061178e565b60405180910390f35b61026a61075a565b6040516102779190611842565b60405180910390f35b610288610763565b60405161029591906117b8565b60405180910390f35b6102b860048036038101906102b39190611733565b610769565b6040516102c5919061178e565b60405180910390f35b6102e860048036038101906102e3919061185d565b6107a0565b005b61030460048036038101906102ff919061188a565b6107b4565b604051610311919061178e565b60405180910390f35b6103226107d4565b60405161032f9190611678565b60405180910390f35b610352600480360381019061034d919061188a565b610862565b60405161035f91906117b8565b60405180910390f35b6103706108aa565b005b61038c60048036038101906103879190611733565b6108be565b005b6103966108de565b6040516103a39190611678565b60405180910390f35b6103c660048036038101906103c1919061188a565b61096c565b005b6103d06109cf565b6040516103dd91906118c6565b60405180910390f35b6103ee6109f9565b6040516103fb9190611678565b60405180910390f35b61041e60048036038101906104199190611733565b610a8b565b60405161042b919061178e565b60405180910390f35b61044e60048036038101906104499190611733565b610b02565b60405161045b919061178e565b60405180910390f35b61047e6004803603810190610479919061188a565b610b25565b60405161048b91906117b8565b60405180910390f35b6104ae60048036038101906104a991906118e1565b610b37565b6040516104bb91906117b8565b60405180910390f35b6104de60048036038101906104d9919061188a565b610bbe565b005b6104fa60048036038101906104f5919061188a565b610c21565b005b60606003805461050b90611950565b80601f016020809104026020016040519081016040528092919081815260200182805461053790611950565b80156105845780601f1061055957610100808354040283529160200191610584565b820191906000526020600020905b81548152906001019060200180831161056757829003601f168201915b5050505050905090565b600080610599610ca4565b90506105a6818585610cac565b600191505092915050565b600082600660003373ffffffffffffffffffffffffffffffffffffffff1673ffffffffffffffffffffffffffffffffffffffff16815260200190815260200160002060009054906101000a900460ff16610640576040517f08c379a0000000000000000000000000000000000000000000000000000000008152600401610637906119cd565b60405180910390fd5b600660008273ffffffffffffffffffffffffffffffffffffffff1673ffffffffffffffffffffffffffffffffffffffff16815260200190815260200160002060009054906101000a900460ff166106cc576040517f08c379a00000000000000000000000000000000000000000000000000000000081526004016106c390611a39565b60405180910390fd5b6106d7338585610e75565b600191505092915050565b60006106ec6110eb565b61071a600a60009054906101000a900473ffffffffffffffffffffffffffffffffffffffff16600954611169565b6001905090565b6000600254905090565b600080610736610ca4565b90506107438582856112bf565b61074e858585610e75565b60019150509392505050565b60006012905090565b60095481565b600080610774610ca4565b90506107958185856107868589610b37565b6107909190611a88565b610cac565b600191505092915050565b6107b16107ab610ca4565b8261134b565b50565b60066020528060005260406000206000915054906101000a900460ff1681565b600780546107e190611950565b80601f016020809104026020016040519081016040528092919081815260200182805461080d90611950565b801561085a5780601f1061082f5761010080835404028352916020019161085a565b820191906000526020600020905b81548152906001019060200180831161083d57829003601f168201915b505050505081565b60008060008373ffffffffffffffffffffffffffffffffffffffff1673ffffffffffffffffffffffffffffffffffffffff168152602001908152602001600020549050919050565b6108b26110eb565b6108bc6000611518565b565b6108d0826108ca610ca4565b836112bf565b6108da828261134b565b5050565b600880546108eb90611950565b80601f016020809104026020016040519081016040528092919081815260200182805461091790611950565b80156109645780601f1061093957610100808354040283529160200191610964565b820191906000526020600020905b81548152906001019060200180831161094757829003601f168201915b505050505081565b6109746110eb565b6000600660008373ffffffffffffffffffffffffffffffffffffffff1673ffffffffffffffffffffffffffffffffffffffff16815260200190815260200160002060006101000a81548160ff02191690831515021790555050565b6000600560009054906101000a900473ffffffffffffffffffffffffffffffffffffffff16905090565b606060048054610a0890611950565b80601f0160208091040260200160405190810160405280929190818152602001828054610a3490611950565b8015610a815780601f10610a5657610100808354040283529160200191610a81565b820191906000526020600020905b815481529060010190602001808311610a6457829003601f168201915b5050505050905090565b600080610a96610ca4565b90506000610aa48286610b37565b905083811015610ae9576040517f08c379a0000000000000000000000000000000000000000000000000000000008152600401610ae090611b2e565b60405180910390fd5b610af68286868403610cac565b60019250505092915050565b600080610b0d610ca4565b9050610b1a818585610e75565b600191505092915050565b6000610b3082610862565b9050919050565b6000600160008473ffffffffffffffffffffffffffffffffffffffff1673ffffffffffffffffffffffffffffffffffffffff16815260200190815260200160002060008373ffffffffffffffffffffffffffffffffffffffff1673ffffffffffffffffffffffffffffffffffffffff16815260200190815260200160002054905092915050565b610bc66110eb565b6001600660008373ffffffffffffffffffffffffffffffffffffffff1673ffffffffffffffffffffffffffffffffffffffff16815260200190815260200160002060006101000a81548160ff02191690831515021790555050565b610c296110eb565b600073ffffffffffffffffffffffffffffffffffffffff168173ffffffffffffffffffffffffffffffffffffffff1603610c98576040517f08c379a0000000000000000000000000000000000000000000000000000000008152600401610c8f90611bc0565b60405180910390fd5b610ca181611518565b50565b600033905090565b600073ffffffffffffffffffffffffffffffffffffffff168373ffffffffffffffffffffffffffffffffffffffff1603610d1b576040517f08c379a0000000000000000000000000000000000000000000000000000000008152600401610d1290611c52565b60405180910390fd5b600073ffffffffffffffffffffffffffffffffffffffff168273ffffffffffffffffffffffffffffffffffffffff1603610d8a576040517f08c379a0000000000000000000000000000000000000000000000000000000008152600401610d8190611ce4565b60405180910390fd5b80600160008573ffffffffffffffffffffffffffffffffffffffff1673ffffffffffffffffffffffffffffffffffffffff16815260200190815260200160002060008473ffffffffffffffffffffffffffffffffffffffff1673ffffffffffffffffffffffffffffffffffffffff168152602001908152602001600020819055508173ffffffffffffffffffffffffffffffffffffffff168373ffffffffffffffffffffffffffffffffffffffff167f8c5be1e5ebec7d5bd14f71427d1e84f3dd0314c0f7b2291e5b200ac8c7c3b92583604051610e6891906117b8565b60405180910390a3505050565b600073ffffffffffffffffffffffffffffffffffffffff168373ffffffffffffffffffffffffffffffffffffffff1603610ee4576040517f08c379a0000000000000000000000000000000000000000000000000000000008152600401610edb90611d76565b60405180910390fd5b600073ffffffffffffffffffffffffffffffffffffffff168273ffffffffffffffffffffffffffffffffffffffff1603610f53576040517f08c379a0000000000000000000000000000000000000000000000000000000008152600401610f4a90611e08565b60405180910390fd5b610f5e8383836115de565b60008060008573ffffffffffffffffffffffffffffffffffffffff1673ffffffffffffffffffffffffffffffffffffffff16815260200190815260200160002054905081811015610fe4576040517f08c379a0000000000000000000000000000000000000000000000000000000008152600401610fdb90611e9a565b60405180910390fd5b8181036000808673ffffffffffffffffffffffffffffffffffffffff1673ffffffffffffffffffffffffffffffffffffffff16815260200190815260200160002081905550816000808573ffffffffffffffffffffffffffffffffffffffff1673ffffffffffffffffffffffffffffffffffffffff168152602001908152602001600020600082825401925050819055508273ffffffffffffffffffffffffffffffffffffffff168473ffffffffffffffffffffffffffffffffffffffff167fddf252ad1be2c89b69c2b068fc378daa952ba7f163c4a11628f55a4df523b3ef846040516110d291906117b8565b60405180910390a36110e58484846115e3565b50505050565b6110f3610ca4565b73ffffffffffffffffffffffffffffffffffffffff166111116109cf565b73ffffffffffffffffffffffffffffffffffffffff1614611167576040517f08c379a000000000000000000000000000000000000000000000000000000000815260040161115e90611f06565b60405180910390fd5b565b600073ffffffffffffffffffffffffffffffffffffffff168273ffffffffffffffffffffffffffffffffffffffff16036111d8576040517f08c379a00000000000000000000000000000000000000000000000000000000081526004016111cf90611f72565b60405180910390fd5b6111e4600083836115de565b80600260008282546111f69190611a88565b92505081905550806000808473ffffffffffffffffffffffffffffffffffffffff1673ffffffffffffffffffffffffffffffffffffffff168152602001908152602001600020600082825401925050819055508173ffffffffffffffffffffffffffffffffffffffff16600073ffffffffffffffffffffffffffffffffffffffff167fddf252ad1be2c89b69c2b068fc378daa952ba7f163c4a11628f55a4df523b3ef836040516112a791906117b8565b60405180910390a36112bb600083836115e3565b5050565b60006112cb8484610b37565b90507fffffffffffffffffffffffffffffffffffffffffffffffffffffffffffffffff81146113455781811015611337576040517f08c379a000000000000000000000000000000000000000000000000000000000815260040161132e90611fde565b60405180910390fd5b6113448484848403610cac565b5b50505050565b600073ffffffffffffffffffffffffffffffffffffffff168273ffffffffffffffffffffffffffffffffffffffff16036113ba576040517f08c379a00000000000000000000000000000000000000000000000000000000081526004016113b190612070565b60405180910390fd5b6113c6826000836115de565b60008060008473ffffffffffffffffffffffffffffffffffffffff1673ffffffffffffffffffffffffffffffffffffffff1681526020019081526020016000205490508181101561144c576040517f08c379a000000000000000000000000000000000000000000000000000000000815260040161144390612102565b60405180910390fd5b8181036000808573ffffffffffffffffffffffffffffffffffffffff1673ffffffffffffffffffffffffffffffffffffffff1681526020019081526020016000208190555081600260008282540392505081905550600073ffffffffffffffffffffffffffffffffffffffff168373ffffffffffffffffffffffffffffffffffffffff167fddf252ad1be2c89b69c2b068fc378daa952ba7f163c4a11628f55a4df523b3ef846040516114ff91906117b8565b60405180910390a3611513836000846115e3565b505050565b6000600560009054906101000a900473ffffffffffffffffffffffffffffffffffffffff16905081600560006101000a81548173ffffffffffffffffffffffffffffffffffffffff021916908373ffffffffffffffffffffffffffffffffffffffff1602179055508173ffffffffffffffffffffffffffffffffffffffff168173ffffffffffffffffffffffffffffffffffffffff167f8be0079c531659141344cd1fd0a4f28419497f9722a3daafe3b4186f6b6457e060405160405180910390a35050565b505050565b505050565b600081519050919050565b600082825260208201905092915050565b60005b83811015611622578082015181840152602081019050611607565b60008484015250505050565b6000601f19601f8301169050919050565b600061164a826115e8565b61165481856115f3565b9350611664818560208601611604565b61166d8161162e565b840191505092915050565b60006020820190508181036000830152611692818461163f565b905092915050565b600080fd5b600073ffffffffffffffffffffffffffffffffffffffff82169050919050565b60006116ca8261169f565b9050919050565b6116da816116bf565b81146116e557600080fd5b50565b6000813590506116f7816116d1565b92915050565b6000819050919050565b611710816116fd565b811461171b57600080fd5b50565b60008135905061172d81611707565b92915050565b6000806040838503121561174a5761174961169a565b5b6000611758858286016116e8565b92505060206117698582860161171e565b9150509250929050565b60008115159050919050565b61178881611773565b82525050565b60006020820190506117a3600083018461177f565b92915050565b6117b2816116fd565b82525050565b60006020820190506117cd60008301846117a9565b92915050565b6000806000606084860312156117ec576117eb61169a565b5b60006117fa868287016116e8565b935050602061180b868287016116e8565b925050604061181c8682870161171e565b9150509250925092565b600060ff82169050919050565b61183c81611826565b82525050565b60006020820190506118576000830184611833565b92915050565b6000602082840312156118735761187261169a565b5b60006118818482850161171e565b91505092915050565b6000602082840312156118a05761189f61169a565b5b60006118ae848285016116e8565b91505092915050565b6118c0816116bf565b82525050565b60006020820190506118db60008301846118b7565b92915050565b600080604083850312156118f8576118f761169a565b5b6000611906858286016116e8565b9250506020611917858286016116e8565b9150509250929050565b7f4e487b7100000000000000000000000000000000000000000000000000000000600052602260045260246000fd5b6000600282049050600182168061196857607f821691505b60208210810361197b5761197a611921565b5b50919050565b7f53454e4445525f4e4f545f494e5f57484954454c495354000000000000000000600082015250565b60006119b76017836115f3565b91506119c282611981565b602082019050919050565b600060208201905081810360008301526119e6816119aa565b9050919050565b7f524543495049454e545f4e4f545f494e5f57484954454c495354000000000000600082015250565b6000611a23601a836115f3565b9150611a2e826119ed565b602082019050919050565b60006020820190508181036000830152611a5281611a16565b9050919050565b7f4e487b7100000000000000000000000000000000000000000000000000000000600052601160045260246000fd5b6000611a93826116fd565b9150611a9e836116fd565b9250828201905080821115611ab657611ab5611a59565b5b92915050565b7f45524332303a2064656372656173656420616c6c6f77616e63652062656c6f7760008201527f207a65726f000000000000000000000000000000000000000000000000000000602082015250565b6000611b186025836115f3565b9150611b2382611abc565b604082019050919050565b60006020820190508181036000830152611b4781611b0b565b9050919050565b7f4f776e61626c653a206e6577206f776e657220697320746865207a65726f206160008201527f6464726573730000000000000000000000000000000000000000000000000000602082015250565b6000611baa6026836115f3565b9150611bb582611b4e565b604082019050919050565b60006020820190508181036000830152611bd981611b9d565b9050919050565b7f45524332303a20617070726f76652066726f6d20746865207a65726f2061646460008201527f7265737300000000000000000000000000000000000000000000000000000000602082015250565b6000611c3c6024836115f3565b9150611c4782611be0565b604082019050919050565b60006020820190508181036000830152611c6b81611c2f565b9050919050565b7f45524332303a20617070726f766520746f20746865207a65726f20616464726560008201527f7373000000000000000000000000000000000000000000000000000000000000602082015250565b6000611cce6022836115f3565b9150611cd982611c72565b604082019050919050565b60006020820190508181036000830152611cfd81611cc1565b9050919050565b7f45524332303a207472616e736665722066726f6d20746865207a65726f20616460008201527f6472657373000000000000000000000000000000000000000000000000000000602082015250565b6000611d606025836115f3565b9150611d6b82611d04565b604082019050919050565b60006020820190508181036000830152611d8f81611d53565b9050919050565b7f45524332303a207472616e7366657220746f20746865207a65726f206164647260008201527f6573730000000000000000000000000000000000000000000000000000000000602082015250565b6000611df26023836115f3565b9150611dfd82611d96565b604082019050919050565b60006020820190508181036000830152611e2181611de5565b9050919050565b7f45524332303a207472616e7366657220616d6f756e742065786365656473206260008201527f616c616e63650000000000000000000000000000000000000000000000000000602082015250565b6000611e846026836115f3565b9150611e8f82611e28565b604082019050919050565b60006020820190508181036000830152611eb381611e77565b9050919050565b7f4f776e61626c653a2063616c6c6572206973206e6f7420746865206f776e6572600082015250565b6000611ef06020836115f3565b9150611efb82611eba565b602082019050919050565b60006020820190508181036000830152611f1f81611ee3565b9050919050565b7f45524332303a206d696e7420746f20746865207a65726f206164647265737300600082015250565b6000611f5c601f836115f3565b9150611f6782611f26565b602082019050919050565b60006020820190508181036000830152611f8b81611f4f565b9050919050565b7f45524332303a20696e73756666696369656e7420616c6c6f77616e6365000000600082015250565b6000611fc8601d836115f3565b9150611fd382611f92565b602082019050919050565b60006020820190508181036000830152611ff781611fbb565b9050919050565b7f45524332303a206275726e2066726f6d20746865207a65726f2061646472657360008201527f7300000000000000000000000000000000000000000000000000000000000000602082015250565b600061205a6021836115f3565b915061206582611ffe565b604082019050919050565b600060208201905081810360008301526120898161204d565b9050919050565b7f45524332303a206275726e20616d6f756e7420657863656564732062616c616e60008201527f6365000000000000000000000000000000000000000000000000000000000000602082015250565b60006120ec6022836115f3565b91506120f782612090565b604082019050919050565b6000602082019050818103600083015261211b816120df565b905091905056fea264697066735822122013724d83c18a92d14b347324b1a6c6d0c3d3730a014bef0ed8c2676030b3f95664736f6c634300081a0033",
  "linkReferences": {},
  "deployedLinkReferences": {}
}