{
  "_format": "hh-sol-artifact-1",
  "contractName": "DBToken",
  "sourceName": "contracts/DBToken.sol",
  "abi": [
    {
      "inputs": [
        {
          "internalType": "string",
          "name": "_tokenName",
          "type": "string"
        },
        {
          "internalType": "string",
          "name": "_tokenSymbol",
          "type": "string"
        },
        {
          "internalType": "uint256",
          "name": "_initialSupply",
          "type": "uint256"
        },
        {
          "internalType": "string",
          "name": "_assetDescription",
          "type": "string"
        },
        {
          "internalType": "string",
          "name": "_issuerName",
          "type": "string"
        },
        {
          "internalType": "uint256",
          "name": "_isinNumber",
          "type": "uint256"
        },
        {
          "internalType": "uint256",
          "name": "_tokenPriceInEuro",
          "type": "uint256"
        },
        {
          "internalType": "uint256",
          "name": "_nominalValue",
          "type": "uint256"
        },
        {
          "internalType": "uint256",
          "name": "_maturityDate",
          "type": "uint256"
        },
        {
          "internalType": "uint16",
          "name": "_yield",
          "type": "uint16"
        }
      ],
      "stateMutability": "nonpayable",
      "type": "constructor"
    },
    {
      "anonymous": false,
      "inputs": [
        {
          "indexed": true,
          "internalType": "address",
          "name": "owner",
          "type": "address"
        },
        {
          "indexed": true,
          "internalType": "address",
          "name": "spender",
          "type": "address"
        },
        {
          "indexed": false,
          "internalType": "uint256",
          "name": "value",
          "type": "uint256"
        }
      ],
      "name": "Approval",
      "type": "event"
    },
    {
      "anonymous": false,
      "inputs": [
        {
          "indexed": true,
          "internalType": "address",
          "name": "previousOwner",
          "type": "address"
        },
        {
          "indexed": true,
          "internalType": "address",
          "name": "newOwner",
          "type": "address"
        }
      ],
      "name": "OwnershipTransferred",
      "type": "event"
    },
    {
      "anonymous": false,
      "inputs": [
        {
          "indexed": true,
          "internalType": "address",
          "name": "from",
          "type": "address"
        },
        {
          "indexed": true,
          "internalType": "address",
          "name": "to",
          "type": "address"
        },
        {
          "indexed": false,
          "internalType": "uint256",
          "name": "value",
          "type": "uint256"
        }
      ],
      "name": "Transfer",
      "type": "event"
    },
    {
      "inputs": [
        {
          "internalType": "address",
          "name": "owner",
          "type": "address"
        },
        {
          "internalType": "address",
          "name": "spender",
          "type": "address"
        }
      ],
      "name": "allowance",
      "outputs": [
        {
          "internalType": "uint256",
          "name": "",
          "type": "uint256"
        }
      ],
      "stateMutability": "view",
      "type": "function"
    },
    {
      "inputs": [
        {
          "internalType": "address",
          "name": "spender",
          "type": "address"
        },
        {
          "internalType": "uint256",
          "name": "amount",
          "type": "uint256"
        }
      ],
      "name": "approve",
      "outputs": [
        {
          "internalType": "bool",
          "name": "",
          "type": "bool"
        }
      ],
      "stateMutability": "nonpayable",
      "type": "function"
    },
    {
      "inputs": [],
      "name": "assetDescription",
      "outputs": [
        {
          "internalType": "string",
          "name": "",
          "type": "string"
        }
      ],
      "stateMutability": "view",
      "type": "function"
    },
    {
      "inputs": [
        {
          "internalType": "address",
          "name": "account",
          "type": "address"
        }
      ],
      "name": "balanceOf",
      "outputs": [
        {
          "internalType": "uint256",
          "name": "",
          "type": "uint256"
        }
      ],
      "stateMutability": "view",
      "type": "function"
    },
    {
      "inputs": [],
      "name": "decimals",
      "outputs": [
        {
          "internalType": "uint8",
          "name": "",
          "type": "uint8"
        }
      ],
      "stateMutability": "view",
      "type": "function"
    },
    {
      "inputs": [
        {
          "internalType": "address",
          "name": "spender",
          "type": "address"
        },
        {
          "internalType": "uint256",
          "name": "subtractedValue",
          "type": "uint256"
        }
      ],
      "name": "decreaseAllowance",
      "outputs": [
        {
          "internalType": "bool",
          "name": "",
          "type": "bool"
        }
      ],
      "stateMutability": "nonpayable",
      "type": "function"
    },
    {
      "inputs": [],
      "name": "getWhitelistAddress",
      "outputs": [
        {
          "internalType": "address",
          "name": "",
          "type": "address"
        }
      ],
      "stateMutability": "view",
      "type": "function"
    },
    {
      "inputs": [
        {
          "internalType": "address",
          "name": "spender",
          "type": "address"
        },
        {
          "internalType": "uint256",
          "name": "addedValue",
          "type": "uint256"
        }
      ],
      "name": "increaseAllowance",
      "outputs": [
        {
          "internalType": "bool",
          "name": "",
          "type": "bool"
        }
      ],
      "stateMutability": "nonpayable",
      "type": "function"
    },
    {
      "inputs": [],
      "name": "isinNumber",
      "outputs": [
        {
          "internalType": "uint256",
          "name": "",
          "type": "uint256"
        }
      ],
      "stateMutability": "view",
      "type": "function"
    },
    {
      "inputs": [],
      "name": "issuerName",
      "outputs": [
        {
          "internalType": "string",
          "name": "",
          "type": "string"
        }
      ],
      "stateMutability": "view",
      "type": "function"
    },
    {
      "inputs": [],
      "name": "maturityDate",
      "outputs": [
        {
          "internalType": "uint256",
          "name": "",
          "type": "uint256"
        }
      ],
      "stateMutability": "view",
      "type": "function"
    },
    {
      "inputs": [],
      "name": "name",
      "outputs": [
        {
          "internalType": "string",
          "name": "",
          "type": "string"
        }
      ],
      "stateMutability": "view",
      "type": "function"
    },
    {
      "inputs": [],
      "name": "nominalValue",
      "outputs": [
        {
          "internalType": "uint256",
          "name": "",
          "type": "uint256"
        }
      ],
      "stateMutability": "view",
      "type": "function"
    },
    {
      "inputs": [],
      "name": "owner",
      "outputs": [
        {
          "internalType": "address",
          "name": "",
          "type": "address"
        }
      ],
      "stateMutability": "view",
      "type": "function"
    },
    {
      "inputs": [],
      "name": "renounceOwnership",
      "outputs": [],
      "stateMutability": "nonpayable",
      "type": "function"
    },
    {
      "inputs": [],
      "name": "symbol",
      "outputs": [
        {
          "internalType": "string",
          "name": "",
          "type": "string"
        }
      ],
      "stateMutability": "view",
      "type": "function"
    },
    {
      "inputs": [],
      "name": "tokenPriceInEuro",
      "outputs": [
        {
          "internalType": "uint256",
          "name": "",
          "type": "uint256"
        }
      ],
      "stateMutability": "view",
      "type": "function"
    },
    {
      "inputs": [],
      "name": "totalSupply",
      "outputs": [
        {
          "internalType": "uint256",
          "name": "",
          "type": "uint256"
        }
      ],
      "stateMutability": "view",
      "type": "function"
    },
    {
      "inputs": [
        {
          "internalType": "address",
          "name": "to",
          "type": "address"
        },
        {
          "internalType": "uint256",
          "name": "amount",
          "type": "uint256"
        }
      ],
      "name": "transfer",
      "outputs": [
        {
          "internalType": "bool",
          "name": "",
          "type": "bool"
        }
      ],
      "stateMutability": "nonpayable",
      "type": "function"
    },
    {
      "inputs": [
        {
          "internalType": "address",
          "name": "from",
          "type": "address"
        },
        {
          "internalType": "address",
          "name": "to",
          "type": "address"
        },
        {
          "internalType": "uint256",
          "name": "amount",
          "type": "uint256"
        }
      ],
      "name": "transferFrom",
      "outputs": [
        {
          "internalType": "bool",
          "name": "",
          "type": "bool"
        }
      ],
      "stateMutability": "nonpayable",
      "type": "function"
    },
    {
      "inputs": [
        {
          "internalType": "address",
          "name": "newOwner",
          "type": "address"
        }
      ],
      "name": "transferOwnership",
      "outputs": [],
      "stateMutability": "nonpayable",
      "type": "function"
    },
    {
      "inputs": [
        {
          "internalType": "address",
          "name": "_toAddress",
          "type": "address"
        },
        {
          "internalType": "uint256",
          "name": "_amount",
          "type": "uint256"
        }
      ],
      "name": "transferToken",
      "outputs": [
        {
          "internalType": "bool",
          "name": "",
          "type": "bool"
        }
      ],
      "stateMutability": "nonpayable",
      "type": "function"
    },
    {
      "inputs": [],
      "name": "whitelistAddress",
      "outputs": [
        {
          "internalType": "address",
          "name": "",
          "type": "address"
        }
      ],
      "stateMutability": "view",
      "type": "function"
    },
    {
      "inputs": [],
      "name": "yield",
      "outputs": [
        {
          "internalType": "uint16",
          "name": "",
          "type": "uint16"
        }
      ],
      "stateMutability": "view",
      "type": "function"
    }
  ],
  "bytecode": "0x60806040526100126101ee60201b60201c565b60ff16600a61002191906105aa565b600f5534801561003057600080fd5b50604051612ff2380380612ff2833981810160405281019061005291906107d0565b898981600390816100639190610b36565b5080600490816100739190610b36565b5050506100926100876101f760201b60201c565b6101ff60201b60201c565b3360405161009f90610431565b6100a99190610c49565b604051809103906000f0801580156100c5573d6000803e3d6000fd5b50600760006101000a81548173ffffffffffffffffffffffffffffffffffffffff021916908373ffffffffffffffffffffffffffffffffffffffff160217905550600760009054906101000a900473ffffffffffffffffffffffffffffffffffffffff16600660006101000a81548173ffffffffffffffffffffffffffffffffffffffff021916908373ffffffffffffffffffffffffffffffffffffffff16021790555086600890816101789190610b36565b5085600990816101889190610b36565b5084600a8190555083600b8190555082600c8190555081600d8190555080600e60006101000a81548161ffff021916908361ffff1602179055506101df33600f548a6101d49190610c64565b6102c560201b60201c565b50505050505050505050610d81565b60006012905090565b600033905090565b6000600560009054906101000a900473ffffffffffffffffffffffffffffffffffffffff16905081600560006101000a81548173ffffffffffffffffffffffffffffffffffffffff021916908373ffffffffffffffffffffffffffffffffffffffff1602179055508173ffffffffffffffffffffffffffffffffffffffff168173ffffffffffffffffffffffffffffffffffffffff167f8be0079c531659141344cd1fd0a4f28419497f9722a3daafe3b4186f6b6457e060405160405180910390a35050565b600073ffffffffffffffffffffffffffffffffffffffff168273ffffffffffffffffffffffffffffffffffffffff1603610334576040517f08c379a000000000000000000000000000000000000000000000000000000000815260040161032b90610d03565b60405180910390fd5b6103466000838361042760201b60201c565b80600260008282546103589190610d23565b92505081905550806000808473ffffffffffffffffffffffffffffffffffffffff1673ffffffffffffffffffffffffffffffffffffffff168152602001908152602001600020600082825401925050819055508173ffffffffffffffffffffffffffffffffffffffff16600073ffffffffffffffffffffffffffffffffffffffff167fddf252ad1be2c89b69c2b068fc378daa952ba7f163c4a11628f55a4df523b3ef836040516104099190610d66565b60405180910390a36104236000838361042c60201b60201c565b5050565b505050565b505050565b6107858061286d83390190565b7f4e487b7100000000000000000000000000000000000000000000000000000000600052601160045260246000fd5b60008160011c9050919050565b6000808291508390505b60018511156104c4578086048111156104a05761049f61043e565b5b60018516156104af5780820291505b80810290506104bd8561046d565b9450610484565b94509492505050565b6000826104dd5760019050610599565b816104eb5760009050610599565b8160018114610501576002811461050b5761053a565b6001915050610599565b60ff84111561051d5761051c61043e565b5b8360020a9150848211156105345761053361043e565b5b50610599565b5060208310610133831016604e8410600b841016171561056f5782820a90508381111561056a5761056961043e565b5b610599565b61057c848484600161047a565b925090508184048111156105935761059261043e565b5b81810290505b9392505050565b6000819050919050565b60006105b5826105a0565b91506105c0836105a0565b92506105ed7fffffffffffffffffffffffffffffffffffffffffffffffffffffffffffffffff84846104cd565b905092915050565b6000604051905090565b600080fd5b600080fd5b600080fd5b600080fd5b6000601f19601f8301169050919050565b7f4e487b7100000000000000000000000000000000000000000000000000000000600052604160045260246000fd5b61065c82610613565b810181811067ffffffffffffffff8211171561067b5761067a610624565b5b80604052505050565b600061068e6105f5565b905061069a8282610653565b919050565b600067ffffffffffffffff8211156106ba576106b9610624565b5b6106c382610613565b9050602081019050919050565b60005b838110156106ee5780820151818401526020810190506106d3565b60008484015250505050565b600061070d6107088461069f565b610684565b9050828152602081018484840111156107295761072861060e565b5b6107348482856106d0565b509392505050565b600082601f83011261075157610750610609565b5b81516107618482602086016106fa565b91505092915050565b610773816105a0565b811461077e57600080fd5b50565b6000815190506107908161076a565b92915050565b600061ffff82169050919050565b6107ad81610796565b81146107b857600080fd5b50565b6000815190506107ca816107a4565b92915050565b6000806000806000806000806000806101408b8d0312156107f4576107f36105ff565b5b60008b015167ffffffffffffffff81111561081257610811610604565b5b61081e8d828e0161073c565b9a505060208b015167ffffffffffffffff81111561083f5761083e610604565b5b61084b8d828e0161073c565b995050604061085c8d828e01610781565b98505060608b015167ffffffffffffffff81111561087d5761087c610604565b5b6108898d828e0161073c565b97505060808b015167ffffffffffffffff8111156108aa576108a9610604565b5b6108b68d828e0161073c565b96505060a06108c78d828e01610781565b95505060c06108d88d828e01610781565b94505060e06108e98d828e01610781565b9350506101006108fb8d828e01610781565b92505061012061090d8d828e016107bb565b9150509295989b9194979a5092959850565b600081519050919050565b7f4e487b7100000000000000000000000000000000000000000000000000000000600052602260045260246000fd5b6000600282049050600182168061097157607f821691505b6020821081036109845761098361092a565b5b50919050565b60008190508160005260206000209050919050565b60006020601f8301049050919050565b600082821b905092915050565b6000600883026109ec7fffffffffffffffffffffffffffffffffffffffffffffffffffffffffffffffff826109af565b6109f686836109af565b95508019841693508086168417925050509392505050565b6000819050919050565b6000610a33610a2e610a29846105a0565b610a0e565b6105a0565b9050919050565b6000819050919050565b610a4d83610a18565b610a61610a5982610a3a565b8484546109bc565b825550505050565b600090565b610a76610a69565b610a81818484610a44565b505050565b5b81811015610aa557610a9a600082610a6e565b600181019050610a87565b5050565b601f821115610aea57610abb8161098a565b610ac48461099f565b81016020851015610ad3578190505b610ae7610adf8561099f565b830182610a86565b50505b505050565b600082821c905092915050565b6000610b0d60001984600802610aef565b1980831691505092915050565b6000610b268383610afc565b9150826002028217905092915050565b610b3f8261091f565b67ffffffffffffffff811115610b5857610b57610624565b5b610b628254610959565b610b6d828285610aa9565b600060209050601f831160018114610ba05760008415610b8e578287015190505b610b988582610b1a565b865550610c00565b601f198416610bae8661098a565b60005b82811015610bd657848901518255600182019150602085019450602081019050610bb1565b86831015610bf35784890151610bef601f891682610afc565b8355505b6001600288020188555050505b505050505050565b600073ffffffffffffffffffffffffffffffffffffffff82169050919050565b6000610c3382610c08565b9050919050565b610c4381610c28565b82525050565b6000602082019050610c5e6000830184610c3a565b92915050565b6000610c6f826105a0565b9150610c7a836105a0565b9250828202610c88816105a0565b91508282048414831517610c9f57610c9e61043e565b5b5092915050565b600082825260208201905092915050565b7f45524332303a206d696e7420746f20746865207a65726f206164647265737300600082015250565b6000610ced601f83610ca6565b9150610cf882610cb7565b602082019050919050565b60006020820190508181036000830152610d1c81610ce0565b9050919050565b6000610d2e826105a0565b9150610d39836105a0565b9250828201905080821115610d5157610d5061043e565b5b92915050565b610d60816105a0565b82525050565b6000602082019050610d7b6000830184610d57565b92915050565b611add80610d906000396000f3fe608060405234801561001057600080fd5b50600436106101585760003560e01c80638da5cb5b116100c3578063a9059cbb1161007c578063a9059cbb146103d1578063d59624b414610401578063dd62ed3e1461041f578063e5002a051461044f578063f088a38b1461046d578063f2fde38b1461048b57610158565b80638da5cb5b1461030b578063915eb97314610329578063938626c21461034757806395d89b41146103655780639bb0489514610383578063a457c2d7146103a157610158565b80632e9868f8116101155780632e9868f814610247578063313ce5671461026557806335f184401461028357806339509351146102a157806370a08231146102d1578063715018a61461030157610158565b806306fdde031461015d578063095ea7b31461017b5780631072cbea146101ab57806318160ddd146101db57806323b872dd146101f95780632859398414610229575b600080fd5b6101656104a7565b6040516101729190611218565b60405180910390f35b610195600480360381019061019091906112d3565b610539565b6040516101a2919061132e565b60405180910390f35b6101c560048036038101906101c091906112d3565b61055c565b6040516101d2919061132e565b60405180910390f35b6101e361069a565b6040516101f09190611358565b60405180910390f35b610213600480360381019061020e9190611373565b6106a4565b604051610220919061132e565b60405180910390f35b6102316106d3565b60405161023e91906113e3565b60405180910390f35b61024f6106e7565b60405161025c9190611218565b60405180910390f35b61026d610775565b60405161027a919061141a565b60405180910390f35b61028b61077e565b6040516102989190611358565b60405180910390f35b6102bb60048036038101906102b691906112d3565b610784565b6040516102c8919061132e565b60405180910390f35b6102eb60048036038101906102e69190611435565b6107bb565b6040516102f89190611358565b60405180910390f35b610309610803565b005b610313610817565b6040516103209190611471565b60405180910390f35b610331610841565b60405161033e9190611471565b60405180910390f35b61034f61086b565b60405161035c9190611218565b60405180910390f35b61036d6108f9565b60405161037a9190611218565b60405180910390f35b61038b61098b565b6040516103989190611358565b60405180910390f35b6103bb60048036038101906103b691906112d3565b610991565b6040516103c8919061132e565b60405180910390f35b6103eb60048036038101906103e691906112d3565b610a08565b6040516103f8919061132e565b60405180910390f35b610409610a2b565b6040516104169190611358565b60405180910390f35b6104396004803603810190610434919061148c565b610a31565b6040516104469190611358565b60405180910390f35b610457610ab8565b6040516104649190611471565b60405180910390f35b610475610ade565b6040516104829190611358565b60405180910390f35b6104a560048036038101906104a09190611435565b610ae4565b005b6060600380546104b6906114fb565b80601f01602080910402602001604051908101604052809291908181526020018280546104e2906114fb565b801561052f5780601f106105045761010080835404028352916020019161052f565b820191906000526020600020905b81548152906001019060200180831161051257829003601f168201915b5050505050905090565b600080610544610b67565b9050610551818585610b6f565b600191505092915050565b600082600660009054906101000a900473ffffffffffffffffffffffffffffffffffffffff1673ffffffffffffffffffffffffffffffffffffffff16634c8dbbb3826040518263ffffffff1660e01b81526004016105ba9190611471565b60006040518083038186803b1580156105d257600080fd5b505afa1580156105e6573d6000803e3d6000fd5b5050505033600660009054906101000a900473ffffffffffffffffffffffffffffffffffffffff1673ffffffffffffffffffffffffffffffffffffffff166394f3f529826040518263ffffffff1660e01b81526004016106469190611471565b60006040518083038186803b15801561065e57600080fd5b505afa158015610672573d6000803e3d6000fd5b5050505061068e3386600f5487610689919061155b565b610d38565b60019250505092915050565b6000600254905090565b6000806106af610b67565b90506106bc858285610fae565b6106c7858585610d38565b60019150509392505050565b600e60009054906101000a900461ffff1681565b600980546106f4906114fb565b80601f0160208091040260200160405190810160405280929190818152602001828054610720906114fb565b801561076d5780601f106107425761010080835404028352916020019161076d565b820191906000526020600020905b81548152906001019060200180831161075057829003601f168201915b505050505081565b60006012905090565b600a5481565b60008061078f610b67565b90506107b08185856107a18589610a31565b6107ab919061159d565b610b6f565b600191505092915050565b60008060008373ffffffffffffffffffffffffffffffffffffffff1673ffffffffffffffffffffffffffffffffffffffff168152602001908152602001600020549050919050565b61080b61103a565b61081560006110b8565b565b6000600560009054906101000a900473ffffffffffffffffffffffffffffffffffffffff16905090565b6000600760009054906101000a900473ffffffffffffffffffffffffffffffffffffffff16905090565b60088054610878906114fb565b80601f01602080910402602001604051908101604052809291908181526020018280546108a4906114fb565b80156108f15780601f106108c6576101008083540402835291602001916108f1565b820191906000526020600020905b8154815290600101906020018083116108d457829003601f168201915b505050505081565b606060048054610908906114fb565b80601f0160208091040260200160405190810160405280929190818152602001828054610934906114fb565b80156109815780601f1061095657610100808354040283529160200191610981565b820191906000526020600020905b81548152906001019060200180831161096457829003601f168201915b5050505050905090565b600c5481565b60008061099c610b67565b905060006109aa8286610a31565b9050838110156109ef576040517f08c379a00000000000000000000000000000000000000000000000000000000081526004016109e690611643565b60405180910390fd5b6109fc8286868403610b6f565b60019250505092915050565b600080610a13610b67565b9050610a20818585610d38565b600191505092915050565b600d5481565b6000600160008473ffffffffffffffffffffffffffffffffffffffff1673ffffffffffffffffffffffffffffffffffffffff16815260200190815260200160002060008373ffffffffffffffffffffffffffffffffffffffff1673ffffffffffffffffffffffffffffffffffffffff16815260200190815260200160002054905092915050565b600760009054906101000a900473ffffffffffffffffffffffffffffffffffffffff1681565b600b5481565b610aec61103a565b600073ffffffffffffffffffffffffffffffffffffffff168173ffffffffffffffffffffffffffffffffffffffff1603610b5b576040517f08c379a0000000000000000000000000000000000000000000000000000000008152600401610b52906116d5565b60405180910390fd5b610b64816110b8565b50565b600033905090565b600073ffffffffffffffffffffffffffffffffffffffff168373ffffffffffffffffffffffffffffffffffffffff1603610bde576040517f08c379a0000000000000000000000000000000000000000000000000000000008152600401610bd590611767565b60405180910390fd5b600073ffffffffffffffffffffffffffffffffffffffff168273ffffffffffffffffffffffffffffffffffffffff1603610c4d576040517f08c379a0000000000000000000000000000000000000000000000000000000008152600401610c44906117f9565b60405180910390fd5b80600160008573ffffffffffffffffffffffffffffffffffffffff1673ffffffffffffffffffffffffffffffffffffffff16815260200190815260200160002060008473ffffffffffffffffffffffffffffffffffffffff1673ffffffffffffffffffffffffffffffffffffffff168152602001908152602001600020819055508173ffffffffffffffffffffffffffffffffffffffff168373ffffffffffffffffffffffffffffffffffffffff167f8c5be1e5ebec7d5bd14f71427d1e84f3dd0314c0f7b2291e5b200ac8c7c3b92583604051610d2b9190611358565b60405180910390a3505050565b600073ffffffffffffffffffffffffffffffffffffffff168373ffffffffffffffffffffffffffffffffffffffff1603610da7576040517f08c379a0000000000000000000000000000000000000000000000000000000008152600401610d9e9061188b565b60405180910390fd5b600073ffffffffffffffffffffffffffffffffffffffff168273ffffffffffffffffffffffffffffffffffffffff1603610e16576040517f08c379a0000000000000000000000000000000000000000000000000000000008152600401610e0d9061191d565b60405180910390fd5b610e2183838361117e565b60008060008573ffffffffffffffffffffffffffffffffffffffff1673ffffffffffffffffffffffffffffffffffffffff16815260200190815260200160002054905081811015610ea7576040517f08c379a0000000000000000000000000000000000000000000000000000000008152600401610e9e906119af565b60405180910390fd5b8181036000808673ffffffffffffffffffffffffffffffffffffffff1673ffffffffffffffffffffffffffffffffffffffff16815260200190815260200160002081905550816000808573ffffffffffffffffffffffffffffffffffffffff1673ffffffffffffffffffffffffffffffffffffffff168152602001908152602001600020600082825401925050819055508273ffffffffffffffffffffffffffffffffffffffff168473ffffffffffffffffffffffffffffffffffffffff167fddf252ad1be2c89b69c2b068fc378daa952ba7f163c4a11628f55a4df523b3ef84604051610f959190611358565b60405180910390a3610fa8848484611183565b50505050565b6000610fba8484610a31565b90507fffffffffffffffffffffffffffffffffffffffffffffffffffffffffffffffff81146110345781811015611026576040517f08c379a000000000000000000000000000000000000000000000000000000000815260040161101d90611a1b565b60405180910390fd5b6110338484848403610b6f565b5b50505050565b611042610b67565b73ffffffffffffffffffffffffffffffffffffffff16611060610817565b73ffffffffffffffffffffffffffffffffffffffff16146110b6576040517f08c379a00000000000000000000000000000000000000000000000000000000081526004016110ad90611a87565b60405180910390fd5b565b6000600560009054906101000a900473ffffffffffffffffffffffffffffffffffffffff16905081600560006101000a81548173ffffffffffffffffffffffffffffffffffffffff021916908373ffffffffffffffffffffffffffffffffffffffff1602179055508173ffffffffffffffffffffffffffffffffffffffff168173ffffffffffffffffffffffffffffffffffffffff167f8be0079c531659141344cd1fd0a4f28419497f9722a3daafe3b4186f6b6457e060405160405180910390a35050565b505050565b505050565b600081519050919050565b600082825260208201905092915050565b60005b838110156111c25780820151818401526020810190506111a7565b60008484015250505050565b6000601f19601f8301169050919050565b60006111ea82611188565b6111f48185611193565b93506112048185602086016111a4565b61120d816111ce565b840191505092915050565b6000602082019050818103600083015261123281846111df565b905092915050565b600080fd5b600073ffffffffffffffffffffffffffffffffffffffff82169050919050565b600061126a8261123f565b9050919050565b61127a8161125f565b811461128557600080fd5b50565b60008135905061129781611271565b92915050565b6000819050919050565b6112b08161129d565b81146112bb57600080fd5b50565b6000813590506112cd816112a7565b92915050565b600080604083850312156112ea576112e961123a565b5b60006112f885828601611288565b9250506020611309858286016112be565b9150509250929050565b60008115159050919050565b61132881611313565b82525050565b6000602082019050611343600083018461131f565b92915050565b6113528161129d565b82525050565b600060208201905061136d6000830184611349565b92915050565b60008060006060848603121561138c5761138b61123a565b5b600061139a86828701611288565b93505060206113ab86828701611288565b92505060406113bc868287016112be565b9150509250925092565b600061ffff82169050919050565b6113dd816113c6565b82525050565b60006020820190506113f860008301846113d4565b92915050565b600060ff82169050919050565b611414816113fe565b82525050565b600060208201905061142f600083018461140b565b92915050565b60006020828403121561144b5761144a61123a565b5b600061145984828501611288565b91505092915050565b61146b8161125f565b82525050565b60006020820190506114866000830184611462565b92915050565b600080604083850312156114a3576114a261123a565b5b60006114b185828601611288565b92505060206114c285828601611288565b9150509250929050565b7f4e487b7100000000000000000000000000000000000000000000000000000000600052602260045260246000fd5b6000600282049050600182168061151357607f821691505b602082108103611526576115256114cc565b5b50919050565b7f4e487b7100000000000000000000000000000000000000000000000000000000600052601160045260246000fd5b60006115668261129d565b91506115718361129d565b925082820261157f8161129d565b915082820484148315176115965761159561152c565b5b5092915050565b60006115a88261129d565b91506115b38361129d565b92508282019050808211156115cb576115ca61152c565b5b92915050565b7f45524332303a2064656372656173656420616c6c6f77616e63652062656c6f7760008201527f207a65726f000000000000000000000000000000000000000000000000000000602082015250565b600061162d602583611193565b9150611638826115d1565b604082019050919050565b6000602082019050818103600083015261165c81611620565b9050919050565b7f4f776e61626c653a206e6577206f776e657220697320746865207a65726f206160008201527f6464726573730000000000000000000000000000000000000000000000000000602082015250565b60006116bf602683611193565b91506116ca82611663565b604082019050919050565b600060208201905081810360008301526116ee816116b2565b9050919050565b7f45524332303a20617070726f76652066726f6d20746865207a65726f2061646460008201527f7265737300000000000000000000000000000000000000000000000000000000602082015250565b6000611751602483611193565b915061175c826116f5565b604082019050919050565b6000602082019050818103600083015261178081611744565b9050919050565b7f45524332303a20617070726f766520746f20746865207a65726f20616464726560008201527f7373000000000000000000000000000000000000000000000000000000000000602082015250565b60006117e3602283611193565b91506117ee82611787565b604082019050919050565b60006020820190508181036000830152611812816117d6565b9050919050565b7f45524332303a207472616e736665722066726f6d20746865207a65726f20616460008201527f6472657373000000000000000000000000000000000000000000000000000000602082015250565b6000611875602583611193565b915061188082611819565b604082019050919050565b600060208201905081810360008301526118a481611868565b9050919050565b7f45524332303a207472616e7366657220746f20746865207a65726f206164647260008201527f6573730000000000000000000000000000000000000000000000000000000000602082015250565b6000611907602383611193565b9150611912826118ab565b604082019050919050565b60006020820190508181036000830152611936816118fa565b9050919050565b7f45524332303a207472616e7366657220616d6f756e742065786365656473206260008201527f616c616e63650000000000000000000000000000000000000000000000000000602082015250565b6000611999602683611193565b91506119a48261193d565b604082019050919050565b600060208201905081810360008301526119c88161198c565b9050919050565b7f45524332303a20696e73756666696369656e7420616c6c6f77616e6365000000600082015250565b6000611a05601d83611193565b9150611a10826119cf565b602082019050919050565b60006020820190508181036000830152611a34816119f8565b9050919050565b7f4f776e61626c653a2063616c6c6572206973206e6f7420746865206f776e6572600082015250565b6000611a71602083611193565b9150611a7c82611a3b565b602082019050919050565b60006020820190508181036000830152611aa081611a64565b905091905056fea2646970667358221220138580994207890f1012ebcc16f063c40a1fb30ea4d34765572af62df5fb63a164736f6c634300081a0033608060405234801561001057600080fd5b50604051610785380380610785833981810160405281019061003291906100db565b806000806101000a81548173ffffffffffffffffffffffffffffffffffffffff021916908373ffffffffffffffffffffffffffffffffffffffff16021790555050610108565b600080fd5b600073ffffffffffffffffffffffffffffffffffffffff82169050919050565b60006100a88261007d565b9050919050565b6100b88161009d565b81146100c357600080fd5b50565b6000815190506100d5816100af565b92915050565b6000602082840312156100f1576100f0610078565b5b60006100ff848285016100c6565b91505092915050565b61066e806101176000396000f3fe608060405234801561001057600080fd5b50600436106100625760003560e01c806330edc0f5146100675780634c8dbbb314610097578063634f87b5146100b35780638ab1d681146100e357806394f3f529146100ff578063e43252d71461011b575b600080fd5b610081600480360381019061007c91906104ec565b610137565b60405161008e9190610534565b60405180910390f35b6100b160048036038101906100ac91906104ec565b6101e6565b005b6100cd60048036038101906100c891906104ec565b610275565b6040516100da9190610534565b60405180910390f35b6100fd60048036038101906100f891906104ec565b610295565b005b610119600480360381019061011491906104ec565b610348565b005b610135600480360381019061013091906104ec565b6103d7565b005b60008060009054906101000a900473ffffffffffffffffffffffffffffffffffffffff1673ffffffffffffffffffffffffffffffffffffffff163373ffffffffffffffffffffffffffffffffffffffff161461019257600080fd5b600160008373ffffffffffffffffffffffffffffffffffffffff1673ffffffffffffffffffffffffffffffffffffffff16815260200190815260200160002060009054906101000a900460ff169050919050565b600160008273ffffffffffffffffffffffffffffffffffffffff1673ffffffffffffffffffffffffffffffffffffffff16815260200190815260200160002060009054906101000a900460ff16610272576040517f08c379a0000000000000000000000000000000000000000000000000000000008152600401610269906105ac565b60405180910390fd5b50565b60016020528060005260406000206000915054906101000a900460ff1681565b60008054906101000a900473ffffffffffffffffffffffffffffffffffffffff1673ffffffffffffffffffffffffffffffffffffffff163373ffffffffffffffffffffffffffffffffffffffff16146102ed57600080fd5b6000600160008373ffffffffffffffffffffffffffffffffffffffff1673ffffffffffffffffffffffffffffffffffffffff16815260200190815260200160002060006101000a81548160ff02191690831515021790555050565b600160008273ffffffffffffffffffffffffffffffffffffffff1673ffffffffffffffffffffffffffffffffffffffff16815260200190815260200160002060009054906101000a900460ff166103d4576040517f08c379a00000000000000000000000000000000000000000000000000000000081526004016103cb90610618565b60405180910390fd5b50565b60008054906101000a900473ffffffffffffffffffffffffffffffffffffffff1673ffffffffffffffffffffffffffffffffffffffff163373ffffffffffffffffffffffffffffffffffffffff161461042f57600080fd5b60018060008373ffffffffffffffffffffffffffffffffffffffff1673ffffffffffffffffffffffffffffffffffffffff16815260200190815260200160002060006101000a81548160ff02191690831515021790555050565b600080fd5b600073ffffffffffffffffffffffffffffffffffffffff82169050919050565b60006104b98261048e565b9050919050565b6104c9816104ae565b81146104d457600080fd5b50565b6000813590506104e6816104c0565b92915050565b60006020828403121561050257610501610489565b5b6000610510848285016104d7565b91505092915050565b60008115159050919050565b61052e81610519565b82525050565b60006020820190506105496000830184610525565b92915050565b600082825260208201905092915050565b7f524543495049454e545f4e4f545f494e5f57484954454c495354000000000000600082015250565b6000610596601a8361054f565b91506105a182610560565b602082019050919050565b600060208201905081810360008301526105c581610589565b9050919050565b7f53454e4445525f4e4f545f494e5f57484954454c495354000000000000000000600082015250565b600061060260178361054f565b915061060d826105cc565b602082019050919050565b60006020820190508181036000830152610631816105f5565b905091905056fea26469706673582212204b33ebcdb74b713578095a094f0b4da45488bffc4668e9769f507a945ec48ee264736f6c634300081a0033",
  "linkReferences": {},
  "deployedLinkReferences": {}
}