{
  "_format": "hh-sol-artifact-1",
  "contractName": "DBToken",
  "sourceName": "contracts/DBToken.sol",
  "abi": [
    {
      "inputs": [
        {
          "internalType": "string",
          "name": "_tokenName",
          "type": "string"
        },
        {
          "internalType": "string",
          "name": "_tokenSymbol",
          "type": "string"
        },
        {
          "internalType": "uint256",
          "name": "_initialSupply",
          "type": "uint256"
        }
      ],
      "stateMutability": "nonpayable",
      "type": "constructor"
    },
    {
      "anonymous": false,
      "inputs": [
        {
          "indexed": true,
          "internalType": "address",
          "name": "owner",
          "type": "address"
        },
        {
          "indexed": true,
          "internalType": "address",
          "name": "spender",
          "type": "address"
        },
        {
          "indexed": false,
          "internalType": "uint256",
          "name": "value",
          "type": "uint256"
        }
      ],
      "name": "Approval",
      "type": "event"
    },
    {
      "anonymous": false,
      "inputs": [
        {
          "indexed": true,
          "internalType": "address",
          "name": "previousOwner",
          "type": "address"
        },
        {
          "indexed": true,
          "internalType": "address",
          "name": "newOwner",
          "type": "address"
        }
      ],
      "name": "OwnershipTransferred",
      "type": "event"
    },
    {
      "anonymous": false,
      "inputs": [
        {
          "indexed": true,
          "internalType": "address",
          "name": "from",
          "type": "address"
        },
        {
          "indexed": true,
          "internalType": "address",
          "name": "to",
          "type": "address"
        },
        {
          "indexed": false,
          "internalType": "uint256",
          "name": "value",
          "type": "uint256"
        }
      ],
      "name": "Transfer",
      "type": "event"
    },
    {
      "inputs": [
        {
          "internalType": "address",
          "name": "owner",
          "type": "address"
        },
        {
          "internalType": "address",
          "name": "spender",
          "type": "address"
        }
      ],
      "name": "allowance",
      "outputs": [
        {
          "internalType": "uint256",
          "name": "",
          "type": "uint256"
        }
      ],
      "stateMutability": "view",
      "type": "function"
    },
    {
      "inputs": [
        {
          "internalType": "address",
          "name": "spender",
          "type": "address"
        },
        {
          "internalType": "uint256",
          "name": "amount",
          "type": "uint256"
        }
      ],
      "name": "approve",
      "outputs": [
        {
          "internalType": "bool",
          "name": "",
          "type": "bool"
        }
      ],
      "stateMutability": "nonpayable",
      "type": "function"
    },
    {
      "inputs": [
        {
          "internalType": "address",
          "name": "account",
          "type": "address"
        }
      ],
      "name": "balanceOf",
      "outputs": [
        {
          "internalType": "uint256",
          "name": "",
          "type": "uint256"
        }
      ],
      "stateMutability": "view",
      "type": "function"
    },
    {
      "inputs": [],
      "name": "decimals",
      "outputs": [
        {
          "internalType": "uint8",
          "name": "",
          "type": "uint8"
        }
      ],
      "stateMutability": "view",
      "type": "function"
    },
    {
      "inputs": [
        {
          "internalType": "address",
          "name": "spender",
          "type": "address"
        },
        {
          "internalType": "uint256",
          "name": "subtractedValue",
          "type": "uint256"
        }
      ],
      "name": "decreaseAllowance",
      "outputs": [
        {
          "internalType": "bool",
          "name": "",
          "type": "bool"
        }
      ],
      "stateMutability": "nonpayable",
      "type": "function"
    },
    {
      "inputs": [],
      "name": "getWhitelistAddress",
      "outputs": [
        {
          "internalType": "address",
          "name": "",
          "type": "address"
        }
      ],
      "stateMutability": "view",
      "type": "function"
    },
    {
      "inputs": [
        {
          "internalType": "address",
          "name": "spender",
          "type": "address"
        },
        {
          "internalType": "uint256",
          "name": "addedValue",
          "type": "uint256"
        }
      ],
      "name": "increaseAllowance",
      "outputs": [
        {
          "internalType": "bool",
          "name": "",
          "type": "bool"
        }
      ],
      "stateMutability": "nonpayable",
      "type": "function"
    },
    {
      "inputs": [],
      "name": "name",
      "outputs": [
        {
          "internalType": "string",
          "name": "",
          "type": "string"
        }
      ],
      "stateMutability": "view",
      "type": "function"
    },
    {
      "inputs": [],
      "name": "owner",
      "outputs": [
        {
          "internalType": "address",
          "name": "",
          "type": "address"
        }
      ],
      "stateMutability": "view",
      "type": "function"
    },
    {
      "inputs": [],
      "name": "renounceOwnership",
      "outputs": [],
      "stateMutability": "nonpayable",
      "type": "function"
    },
    {
      "inputs": [],
      "name": "symbol",
      "outputs": [
        {
          "internalType": "string",
          "name": "",
          "type": "string"
        }
      ],
      "stateMutability": "view",
      "type": "function"
    },
    {
      "inputs": [],
      "name": "totalSupply",
      "outputs": [
        {
          "internalType": "uint256",
          "name": "",
          "type": "uint256"
        }
      ],
      "stateMutability": "view",
      "type": "function"
    },
    {
      "inputs": [
        {
          "internalType": "address",
          "name": "to",
          "type": "address"
        },
        {
          "internalType": "uint256",
          "name": "amount",
          "type": "uint256"
        }
      ],
      "name": "transfer",
      "outputs": [
        {
          "internalType": "bool",
          "name": "",
          "type": "bool"
        }
      ],
      "stateMutability": "nonpayable",
      "type": "function"
    },
    {
      "inputs": [
        {
          "internalType": "address",
          "name": "from",
          "type": "address"
        },
        {
          "internalType": "address",
          "name": "to",
          "type": "address"
        },
        {
          "internalType": "uint256",
          "name": "amount",
          "type": "uint256"
        }
      ],
      "name": "transferFrom",
      "outputs": [
        {
          "internalType": "bool",
          "name": "",
          "type": "bool"
        }
      ],
      "stateMutability": "nonpayable",
      "type": "function"
    },
    {
      "inputs": [
        {
          "internalType": "address",
          "name": "newOwner",
          "type": "address"
        }
      ],
      "name": "transferOwnership",
      "outputs": [],
      "stateMutability": "nonpayable",
      "type": "function"
    },
    {
      "inputs": [
        {
          "internalType": "address",
          "name": "_toAddress",
          "type": "address"
        },
        {
          "internalType": "uint256",
          "name": "_amount",
          "type": "uint256"
        }
      ],
      "name": "transferToken",
      "outputs": [
        {
          "internalType": "bool",
          "name": "",
          "type": "bool"
        }
      ],
      "stateMutability": "nonpayable",
      "type": "function"
    },
    {
      "inputs": [],
      "name": "whitelistAddress",
      "outputs": [
        {
          "internalType": "address",
          "name": "",
          "type": "address"
        }
      ],
      "stateMutability": "view",
      "type": "function"
    },
    {
      "inputs": [],
      "name": "whitelistContract",
      "outputs": [
        {
          "internalType": "contract Whitelist",
          "name": "",
          "type": "address"
        }
      ],
      "stateMutability": "view",
      "type": "function"
    }
  ],
  "bytecode": "0x608060405261001261018e60201b60201c565b60ff16600a610021919061054a565b60085534801561003057600080fd5b50604051612c6d380380612c6d83398181016040528101906100529190610736565b8282816003908161006391906109d8565b50806004908161007391906109d8565b50505061009261008761019760201b60201c565b61019f60201b60201c565b3360405161009f906103d1565b6100a99190610aeb565b604051809103906000f0801580156100c5573d6000803e3d6000fd5b50600760006101000a81548173ffffffffffffffffffffffffffffffffffffffff021916908373ffffffffffffffffffffffffffffffffffffffff160217905550600760009054906101000a900473ffffffffffffffffffffffffffffffffffffffff16600660006101000a81548173ffffffffffffffffffffffffffffffffffffffff021916908373ffffffffffffffffffffffffffffffffffffffff160217905550610186336008548361017b9190610b06565b61026560201b60201c565b505050610c23565b60006012905090565b600033905090565b6000600560009054906101000a900473ffffffffffffffffffffffffffffffffffffffff16905081600560006101000a81548173ffffffffffffffffffffffffffffffffffffffff021916908373ffffffffffffffffffffffffffffffffffffffff1602179055508173ffffffffffffffffffffffffffffffffffffffff168173ffffffffffffffffffffffffffffffffffffffff167f8be0079c531659141344cd1fd0a4f28419497f9722a3daafe3b4186f6b6457e060405160405180910390a35050565b600073ffffffffffffffffffffffffffffffffffffffff168273ffffffffffffffffffffffffffffffffffffffff16036102d4576040517f08c379a00000000000000000000000000000000000000000000000000000000081526004016102cb90610ba5565b60405180910390fd5b6102e6600083836103c760201b60201c565b80600260008282546102f89190610bc5565b92505081905550806000808473ffffffffffffffffffffffffffffffffffffffff1673ffffffffffffffffffffffffffffffffffffffff168152602001908152602001600020600082825401925050819055508173ffffffffffffffffffffffffffffffffffffffff16600073ffffffffffffffffffffffffffffffffffffffff167fddf252ad1be2c89b69c2b068fc378daa952ba7f163c4a11628f55a4df523b3ef836040516103a99190610c08565b60405180910390a36103c3600083836103cc60201b60201c565b5050565b505050565b505050565b61072c8061254183390190565b7f4e487b7100000000000000000000000000000000000000000000000000000000600052601160045260246000fd5b60008160011c9050919050565b6000808291508390505b6001851115610464578086048111156104405761043f6103de565b5b600185161561044f5780820291505b808102905061045d8561040d565b9450610424565b94509492505050565b60008261047d5760019050610539565b8161048b5760009050610539565b81600181146104a157600281146104ab576104da565b6001915050610539565b60ff8411156104bd576104bc6103de565b5b8360020a9150848211156104d4576104d36103de565b5b50610539565b5060208310610133831016604e8410600b841016171561050f5782820a90508381111561050a576105096103de565b5b610539565b61051c848484600161041a565b92509050818404811115610533576105326103de565b5b81810290505b9392505050565b6000819050919050565b600061055582610540565b915061056083610540565b925061058d7fffffffffffffffffffffffffffffffffffffffffffffffffffffffffffffffff848461046d565b905092915050565b6000604051905090565b600080fd5b600080fd5b600080fd5b600080fd5b6000601f19601f8301169050919050565b7f4e487b7100000000000000000000000000000000000000000000000000000000600052604160045260246000fd5b6105fc826105b3565b810181811067ffffffffffffffff8211171561061b5761061a6105c4565b5b80604052505050565b600061062e610595565b905061063a82826105f3565b919050565b600067ffffffffffffffff82111561065a576106596105c4565b5b610663826105b3565b9050602081019050919050565b60005b8381101561068e578082015181840152602081019050610673565b60008484015250505050565b60006106ad6106a88461063f565b610624565b9050828152602081018484840111156106c9576106c86105ae565b5b6106d4848285610670565b509392505050565b600082601f8301126106f1576106f06105a9565b5b815161070184826020860161069a565b91505092915050565b61071381610540565b811461071e57600080fd5b50565b6000815190506107308161070a565b92915050565b60008060006060848603121561074f5761074e61059f565b5b600084015167ffffffffffffffff81111561076d5761076c6105a4565b5b610779868287016106dc565b935050602084015167ffffffffffffffff81111561079a576107996105a4565b5b6107a6868287016106dc565b92505060406107b786828701610721565b9150509250925092565b600081519050919050565b7f4e487b7100000000000000000000000000000000000000000000000000000000600052602260045260246000fd5b6000600282049050600182168061081357607f821691505b602082108103610826576108256107cc565b5b50919050565b60008190508160005260206000209050919050565b60006020601f8301049050919050565b600082821b905092915050565b60006008830261088e7fffffffffffffffffffffffffffffffffffffffffffffffffffffffffffffffff82610851565b6108988683610851565b95508019841693508086168417925050509392505050565b6000819050919050565b60006108d56108d06108cb84610540565b6108b0565b610540565b9050919050565b6000819050919050565b6108ef836108ba565b6109036108fb826108dc565b84845461085e565b825550505050565b600090565b61091861090b565b6109238184846108e6565b505050565b5b818110156109475761093c600082610910565b600181019050610929565b5050565b601f82111561098c5761095d8161082c565b61096684610841565b81016020851015610975578190505b61098961098185610841565b830182610928565b50505b505050565b600082821c905092915050565b60006109af60001984600802610991565b1980831691505092915050565b60006109c8838361099e565b9150826002028217905092915050565b6109e1826107c1565b67ffffffffffffffff8111156109fa576109f96105c4565b5b610a0482546107fb565b610a0f82828561094b565b600060209050601f831160018114610a425760008415610a30578287015190505b610a3a85826109bc565b865550610aa2565b601f198416610a508661082c565b60005b82811015610a7857848901518255600182019150602085019450602081019050610a53565b86831015610a955784890151610a91601f89168261099e565b8355505b6001600288020188555050505b505050505050565b600073ffffffffffffffffffffffffffffffffffffffff82169050919050565b6000610ad582610aaa565b9050919050565b610ae581610aca565b82525050565b6000602082019050610b006000830184610adc565b92915050565b6000610b1182610540565b9150610b1c83610540565b9250828202610b2a81610540565b91508282048414831517610b4157610b406103de565b5b5092915050565b600082825260208201905092915050565b7f45524332303a206d696e7420746f20746865207a65726f206164647265737300600082015250565b6000610b8f601f83610b48565b9150610b9a82610b59565b602082019050919050565b60006020820190508181036000830152610bbe81610b82565b9050919050565b6000610bd082610540565b9150610bdb83610540565b9250828201905080821115610bf357610bf26103de565b5b92915050565b610c0281610540565b82525050565b6000602082019050610c1d6000830184610bf9565b92915050565b61190f80610c326000396000f3fe608060405234801561001057600080fd5b50600436106101165760003560e01c806384900b04116100a2578063a457c2d711610071578063a457c2d7146102e7578063a9059cbb14610317578063dd62ed3e14610347578063e5002a0514610377578063f2fde38b1461039557610116565b806384900b041461026f5780638da5cb5b1461028d578063915eb973146102ab57806395d89b41146102c957610116565b806323b872dd116100e957806323b872dd146101b7578063313ce567146101e7578063395093511461020557806370a0823114610235578063715018a61461026557610116565b806306fdde031461011b578063095ea7b3146101395780631072cbea1461016957806318160ddd14610199575b600080fd5b6101236103b1565b6040516101309190611008565b60405180910390f35b610153600480360381019061014e91906110c3565b610443565b604051610160919061111e565b60405180910390f35b610183600480360381019061017e91906110c3565b610466565b604051610190919061111e565b60405180910390f35b6101a16105a4565b6040516101ae9190611148565b60405180910390f35b6101d160048036038101906101cc9190611163565b6105ae565b6040516101de919061111e565b60405180910390f35b6101ef6105dd565b6040516101fc91906111d2565b60405180910390f35b61021f600480360381019061021a91906110c3565b6105e6565b60405161022c919061111e565b60405180910390f35b61024f600480360381019061024a91906111ed565b61061d565b60405161025c9190611148565b60405180910390f35b61026d610665565b005b610277610679565b6040516102849190611279565b60405180910390f35b61029561069f565b6040516102a291906112a3565b60405180910390f35b6102b36106c9565b6040516102c091906112a3565b60405180910390f35b6102d16106fb565b6040516102de9190611008565b60405180910390f35b61030160048036038101906102fc91906110c3565b61078d565b60405161030e919061111e565b60405180910390f35b610331600480360381019061032c91906110c3565b610804565b60405161033e919061111e565b60405180910390f35b610361600480360381019061035c91906112be565b610827565b60405161036e9190611148565b60405180910390f35b61037f6108ae565b60405161038c91906112a3565b60405180910390f35b6103af60048036038101906103aa91906111ed565b6108d4565b005b6060600380546103c09061132d565b80601f01602080910402602001604051908101604052809291908181526020018280546103ec9061132d565b80156104395780601f1061040e57610100808354040283529160200191610439565b820191906000526020600020905b81548152906001019060200180831161041c57829003601f168201915b5050505050905090565b60008061044e610957565b905061045b81858561095f565b600191505092915050565b600082600660009054906101000a900473ffffffffffffffffffffffffffffffffffffffff1673ffffffffffffffffffffffffffffffffffffffff16634c8dbbb3826040518263ffffffff1660e01b81526004016104c491906112a3565b60006040518083038186803b1580156104dc57600080fd5b505afa1580156104f0573d6000803e3d6000fd5b5050505033600660009054906101000a900473ffffffffffffffffffffffffffffffffffffffff1673ffffffffffffffffffffffffffffffffffffffff166394f3f529826040518263ffffffff1660e01b815260040161055091906112a3565b60006040518083038186803b15801561056857600080fd5b505afa15801561057c573d6000803e3d6000fd5b50505050610598338660085487610593919061138d565b610b28565b60019250505092915050565b6000600254905090565b6000806105b9610957565b90506105c6858285610d9e565b6105d1858585610b28565b60019150509392505050565b60006012905090565b6000806105f1610957565b90506106128185856106038589610827565b61060d91906113cf565b61095f565b600191505092915050565b60008060008373ffffffffffffffffffffffffffffffffffffffff1673ffffffffffffffffffffffffffffffffffffffff168152602001908152602001600020549050919050565b61066d610e2a565b6106776000610ea8565b565b600660009054906101000a900473ffffffffffffffffffffffffffffffffffffffff1681565b6000600560009054906101000a900473ffffffffffffffffffffffffffffffffffffffff16905090565b60006106d3610e2a565b600760009054906101000a900473ffffffffffffffffffffffffffffffffffffffff16905090565b60606004805461070a9061132d565b80601f01602080910402602001604051908101604052809291908181526020018280546107369061132d565b80156107835780601f1061075857610100808354040283529160200191610783565b820191906000526020600020905b81548152906001019060200180831161076657829003601f168201915b5050505050905090565b600080610798610957565b905060006107a68286610827565b9050838110156107eb576040517f08c379a00000000000000000000000000000000000000000000000000000000081526004016107e290611475565b60405180910390fd5b6107f8828686840361095f565b60019250505092915050565b60008061080f610957565b905061081c818585610b28565b600191505092915050565b6000600160008473ffffffffffffffffffffffffffffffffffffffff1673ffffffffffffffffffffffffffffffffffffffff16815260200190815260200160002060008373ffffffffffffffffffffffffffffffffffffffff1673ffffffffffffffffffffffffffffffffffffffff16815260200190815260200160002054905092915050565b600760009054906101000a900473ffffffffffffffffffffffffffffffffffffffff1681565b6108dc610e2a565b600073ffffffffffffffffffffffffffffffffffffffff168173ffffffffffffffffffffffffffffffffffffffff160361094b576040517f08c379a000000000000000000000000000000000000000000000000000000000815260040161094290611507565b60405180910390fd5b61095481610ea8565b50565b600033905090565b600073ffffffffffffffffffffffffffffffffffffffff168373ffffffffffffffffffffffffffffffffffffffff16036109ce576040517f08c379a00000000000000000000000000000000000000000000000000000000081526004016109c590611599565b60405180910390fd5b600073ffffffffffffffffffffffffffffffffffffffff168273ffffffffffffffffffffffffffffffffffffffff1603610a3d576040517f08c379a0000000000000000000000000000000000000000000000000000000008152600401610a349061162b565b60405180910390fd5b80600160008573ffffffffffffffffffffffffffffffffffffffff1673ffffffffffffffffffffffffffffffffffffffff16815260200190815260200160002060008473ffffffffffffffffffffffffffffffffffffffff1673ffffffffffffffffffffffffffffffffffffffff168152602001908152602001600020819055508173ffffffffffffffffffffffffffffffffffffffff168373ffffffffffffffffffffffffffffffffffffffff167f8c5be1e5ebec7d5bd14f71427d1e84f3dd0314c0f7b2291e5b200ac8c7c3b92583604051610b1b9190611148565b60405180910390a3505050565b600073ffffffffffffffffffffffffffffffffffffffff168373ffffffffffffffffffffffffffffffffffffffff1603610b97576040517f08c379a0000000000000000000000000000000000000000000000000000000008152600401610b8e906116bd565b60405180910390fd5b600073ffffffffffffffffffffffffffffffffffffffff168273ffffffffffffffffffffffffffffffffffffffff1603610c06576040517f08c379a0000000000000000000000000000000000000000000000000000000008152600401610bfd9061174f565b60405180910390fd5b610c11838383610f6e565b60008060008573ffffffffffffffffffffffffffffffffffffffff1673ffffffffffffffffffffffffffffffffffffffff16815260200190815260200160002054905081811015610c97576040517f08c379a0000000000000000000000000000000000000000000000000000000008152600401610c8e906117e1565b60405180910390fd5b8181036000808673ffffffffffffffffffffffffffffffffffffffff1673ffffffffffffffffffffffffffffffffffffffff16815260200190815260200160002081905550816000808573ffffffffffffffffffffffffffffffffffffffff1673ffffffffffffffffffffffffffffffffffffffff168152602001908152602001600020600082825401925050819055508273ffffffffffffffffffffffffffffffffffffffff168473ffffffffffffffffffffffffffffffffffffffff167fddf252ad1be2c89b69c2b068fc378daa952ba7f163c4a11628f55a4df523b3ef84604051610d859190611148565b60405180910390a3610d98848484610f73565b50505050565b6000610daa8484610827565b90507fffffffffffffffffffffffffffffffffffffffffffffffffffffffffffffffff8114610e245781811015610e16576040517f08c379a0000000000000000000000000000000000000000000000000000000008152600401610e0d9061184d565b60405180910390fd5b610e23848484840361095f565b5b50505050565b610e32610957565b73ffffffffffffffffffffffffffffffffffffffff16610e5061069f565b73ffffffffffffffffffffffffffffffffffffffff1614610ea6576040517f08c379a0000000000000000000000000000000000000000000000000000000008152600401610e9d906118b9565b60405180910390fd5b565b6000600560009054906101000a900473ffffffffffffffffffffffffffffffffffffffff16905081600560006101000a81548173ffffffffffffffffffffffffffffffffffffffff021916908373ffffffffffffffffffffffffffffffffffffffff1602179055508173ffffffffffffffffffffffffffffffffffffffff168173ffffffffffffffffffffffffffffffffffffffff167f8be0079c531659141344cd1fd0a4f28419497f9722a3daafe3b4186f6b6457e060405160405180910390a35050565b505050565b505050565b600081519050919050565b600082825260208201905092915050565b60005b83811015610fb2578082015181840152602081019050610f97565b60008484015250505050565b6000601f19601f8301169050919050565b6000610fda82610f78565b610fe48185610f83565b9350610ff4818560208601610f94565b610ffd81610fbe565b840191505092915050565b600060208201905081810360008301526110228184610fcf565b905092915050565b600080fd5b600073ffffffffffffffffffffffffffffffffffffffff82169050919050565b600061105a8261102f565b9050919050565b61106a8161104f565b811461107557600080fd5b50565b60008135905061108781611061565b92915050565b6000819050919050565b6110a08161108d565b81146110ab57600080fd5b50565b6000813590506110bd81611097565b92915050565b600080604083850312156110da576110d961102a565b5b60006110e885828601611078565b92505060206110f9858286016110ae565b9150509250929050565b60008115159050919050565b61111881611103565b82525050565b6000602082019050611133600083018461110f565b92915050565b6111428161108d565b82525050565b600060208201905061115d6000830184611139565b92915050565b60008060006060848603121561117c5761117b61102a565b5b600061118a86828701611078565b935050602061119b86828701611078565b92505060406111ac868287016110ae565b9150509250925092565b600060ff82169050919050565b6111cc816111b6565b82525050565b60006020820190506111e760008301846111c3565b92915050565b6000602082840312156112035761120261102a565b5b600061121184828501611078565b91505092915050565b6000819050919050565b600061123f61123a6112358461102f565b61121a565b61102f565b9050919050565b600061125182611224565b9050919050565b600061126382611246565b9050919050565b61127381611258565b82525050565b600060208201905061128e600083018461126a565b92915050565b61129d8161104f565b82525050565b60006020820190506112b86000830184611294565b92915050565b600080604083850312156112d5576112d461102a565b5b60006112e385828601611078565b92505060206112f485828601611078565b9150509250929050565b7f4e487b7100000000000000000000000000000000000000000000000000000000600052602260045260246000fd5b6000600282049050600182168061134557607f821691505b602082108103611358576113576112fe565b5b50919050565b7f4e487b7100000000000000000000000000000000000000000000000000000000600052601160045260246000fd5b60006113988261108d565b91506113a38361108d565b92508282026113b18161108d565b915082820484148315176113c8576113c761135e565b5b5092915050565b60006113da8261108d565b91506113e58361108d565b92508282019050808211156113fd576113fc61135e565b5b92915050565b7f45524332303a2064656372656173656420616c6c6f77616e63652062656c6f7760008201527f207a65726f000000000000000000000000000000000000000000000000000000602082015250565b600061145f602583610f83565b915061146a82611403565b604082019050919050565b6000602082019050818103600083015261148e81611452565b9050919050565b7f4f776e61626c653a206e6577206f776e657220697320746865207a65726f206160008201527f6464726573730000000000000000000000000000000000000000000000000000602082015250565b60006114f1602683610f83565b91506114fc82611495565b604082019050919050565b60006020820190508181036000830152611520816114e4565b9050919050565b7f45524332303a20617070726f76652066726f6d20746865207a65726f2061646460008201527f7265737300000000000000000000000000000000000000000000000000000000602082015250565b6000611583602483610f83565b915061158e82611527565b604082019050919050565b600060208201905081810360008301526115b281611576565b9050919050565b7f45524332303a20617070726f766520746f20746865207a65726f20616464726560008201527f7373000000000000000000000000000000000000000000000000000000000000602082015250565b6000611615602283610f83565b9150611620826115b9565b604082019050919050565b6000602082019050818103600083015261164481611608565b9050919050565b7f45524332303a207472616e736665722066726f6d20746865207a65726f20616460008201527f6472657373000000000000000000000000000000000000000000000000000000602082015250565b60006116a7602583610f83565b91506116b28261164b565b604082019050919050565b600060208201905081810360008301526116d68161169a565b9050919050565b7f45524332303a207472616e7366657220746f20746865207a65726f206164647260008201527f6573730000000000000000000000000000000000000000000000000000000000602082015250565b6000611739602383610f83565b9150611744826116dd565b604082019050919050565b600060208201905081810360008301526117688161172c565b9050919050565b7f45524332303a207472616e7366657220616d6f756e742065786365656473206260008201527f616c616e63650000000000000000000000000000000000000000000000000000602082015250565b60006117cb602683610f83565b91506117d68261176f565b604082019050919050565b600060208201905081810360008301526117fa816117be565b9050919050565b7f45524332303a20696e73756666696369656e7420616c6c6f77616e6365000000600082015250565b6000611837601d83610f83565b915061184282611801565b602082019050919050565b600060208201905081810360008301526118668161182a565b9050919050565b7f4f776e61626c653a2063616c6c6572206973206e6f7420746865206f776e6572600082015250565b60006118a3602083610f83565b91506118ae8261186d565b602082019050919050565b600060208201905081810360008301526118d281611896565b905091905056fea26469706673582212208e16bccd5e2d4731e16adbc810b0cfc5ec8966219b456d32e682c406a35925b964736f6c634300081a0033608060405234801561001057600080fd5b5060405161072c38038061072c833981810160405281019061003291906100db565b806000806101000a81548173ffffffffffffffffffffffffffffffffffffffff021916908373ffffffffffffffffffffffffffffffffffffffff16021790555050610108565b600080fd5b600073ffffffffffffffffffffffffffffffffffffffff82169050919050565b60006100a88261007d565b9050919050565b6100b88161009d565b81146100c357600080fd5b50565b6000815190506100d5816100af565b92915050565b6000602082840312156100f1576100f0610078565b5b60006100ff848285016100c6565b91505092915050565b610615806101176000396000f3fe608060405234801561001057600080fd5b50600436106100625760003560e01c806330edc0f5146100675780634c8dbbb314610097578063634f87b5146100b35780638ab1d681146100e357806394f3f529146100ff578063e43252d71461011b575b600080fd5b610081600480360381019061007c9190610493565b610137565b60405161008e91906104db565b60405180910390f35b6100b160048036038101906100ac9190610493565b61018d565b005b6100cd60048036038101906100c89190610493565b61021c565b6040516100da91906104db565b60405180910390f35b6100fd60048036038101906100f89190610493565b61023c565b005b61011960048036038101906101149190610493565b6102ef565b005b61013560048036038101906101309190610493565b61037e565b005b6000600160008373ffffffffffffffffffffffffffffffffffffffff1673ffffffffffffffffffffffffffffffffffffffff16815260200190815260200160002060009054906101000a900460ff169050919050565b600160008273ffffffffffffffffffffffffffffffffffffffff1673ffffffffffffffffffffffffffffffffffffffff16815260200190815260200160002060009054906101000a900460ff16610219576040517f08c379a000000000000000000000000000000000000000000000000000000000815260040161021090610553565b60405180910390fd5b50565b60016020528060005260406000206000915054906101000a900460ff1681565b60008054906101000a900473ffffffffffffffffffffffffffffffffffffffff1673ffffffffffffffffffffffffffffffffffffffff163373ffffffffffffffffffffffffffffffffffffffff161461029457600080fd5b6000600160008373ffffffffffffffffffffffffffffffffffffffff1673ffffffffffffffffffffffffffffffffffffffff16815260200190815260200160002060006101000a81548160ff02191690831515021790555050565b600160008273ffffffffffffffffffffffffffffffffffffffff1673ffffffffffffffffffffffffffffffffffffffff16815260200190815260200160002060009054906101000a900460ff1661037b576040517f08c379a0000000000000000000000000000000000000000000000000000000008152600401610372906105bf565b60405180910390fd5b50565b60008054906101000a900473ffffffffffffffffffffffffffffffffffffffff1673ffffffffffffffffffffffffffffffffffffffff163373ffffffffffffffffffffffffffffffffffffffff16146103d657600080fd5b60018060008373ffffffffffffffffffffffffffffffffffffffff1673ffffffffffffffffffffffffffffffffffffffff16815260200190815260200160002060006101000a81548160ff02191690831515021790555050565b600080fd5b600073ffffffffffffffffffffffffffffffffffffffff82169050919050565b600061046082610435565b9050919050565b61047081610455565b811461047b57600080fd5b50565b60008135905061048d81610467565b92915050565b6000602082840312156104a9576104a8610430565b5b60006104b78482850161047e565b91505092915050565b60008115159050919050565b6104d5816104c0565b82525050565b60006020820190506104f060008301846104cc565b92915050565b600082825260208201905092915050565b7f524543495049454e545f4e4f545f494e5f57484954454c495354000000000000600082015250565b600061053d601a836104f6565b915061054882610507565b602082019050919050565b6000602082019050818103600083015261056c81610530565b9050919050565b7f53454e4445525f4e4f545f494e5f57484954454c495354000000000000000000600082015250565b60006105a96017836104f6565b91506105b482610573565b602082019050919050565b600060208201905081810360008301526105d88161059c565b905091905056fea26469706673582212201754d3056e60dd94941f2c65382d661909b3e5e426978d71edd3f8ece246e61f64736f6c634300081a0033",
  "linkReferences": {},
  "deployedLinkReferences": {}
}