{
  "_format": "hh-sol-artifact-1",
  "contractName": "Whitelist",
  "sourceName": "contracts/Whitelist.sol",
  "abi": [
    {
      "inputs": [
        {
          "internalType": "address",
          "name": "_ownerAddress",
          "type": "address"
        }
      ],
      "stateMutability": "nonpayable",
      "type": "constructor"
    },
    {
      "inputs": [
        {
          "internalType": "address",
          "name": "addAddress",
          "type": "address"
        }
      ],
      "name": "addToWhitelist",
      "outputs": [],
      "stateMutability": "nonpayable",
      "type": "function"
    },
    {
      "inputs": [
        {
          "internalType": "address",
          "name": "",
          "type": "address"
        }
      ],
      "name": "generalWhitelist",
      "outputs": [
        {
          "internalType": "bool",
          "name": "",
          "type": "bool"
        }
      ],
      "stateMutability": "view",
      "type": "function"
    },
    {
      "inputs": [
        {
          "internalType": "address",
          "name": "_address",
          "type": "address"
        }
      ],
      "name": "getWhitelist",
      "outputs": [
        {
          "internalType": "bool",
          "name": "",
          "type": "bool"
        }
      ],
      "stateMutability": "view",
      "type": "function"
    },
    {
      "inputs": [
        {
          "internalType": "address",
          "name": "removeAddress",
          "type": "address"
        }
      ],
      "name": "removeFromWhitelist",
      "outputs": [],
      "stateMutability": "nonpayable",
      "type": "function"
    },
    {
      "inputs": [
        {
          "internalType": "address",
          "name": "_fromAddress",
          "type": "address"
        }
      ],
      "name": "whitelistFuncFrom",
      "outputs": [],
      "stateMutability": "view",
      "type": "function"
    },
    {
      "inputs": [
        {
          "internalType": "address",
          "name": "_toAddress",
          "type": "address"
        }
      ],
      "name": "whitelistFuncTo",
      "outputs": [],
      "stateMutability": "view",
      "type": "function"
    }
  ],
  "bytecode": "0x608060405234801561001057600080fd5b5060405161072c38038061072c833981810160405281019061003291906100db565b806000806101000a81548173ffffffffffffffffffffffffffffffffffffffff021916908373ffffffffffffffffffffffffffffffffffffffff16021790555050610108565b600080fd5b600073ffffffffffffffffffffffffffffffffffffffff82169050919050565b60006100a88261007d565b9050919050565b6100b88161009d565b81146100c357600080fd5b50565b6000815190506100d5816100af565b92915050565b6000602082840312156100f1576100f0610078565b5b60006100ff848285016100c6565b91505092915050565b610615806101176000396000f3fe608060405234801561001057600080fd5b50600436106100625760003560e01c806330edc0f5146100675780634c8dbbb314610097578063634f87b5146100b35780638ab1d681146100e357806394f3f529146100ff578063e43252d71461011b575b600080fd5b610081600480360381019061007c9190610493565b610137565b60405161008e91906104db565b60405180910390f35b6100b160048036038101906100ac9190610493565b61018d565b005b6100cd60048036038101906100c89190610493565b61021c565b6040516100da91906104db565b60405180910390f35b6100fd60048036038101906100f89190610493565b61023c565b005b61011960048036038101906101149190610493565b6102ef565b005b61013560048036038101906101309190610493565b61037e565b005b6000600160008373ffffffffffffffffffffffffffffffffffffffff1673ffffffffffffffffffffffffffffffffffffffff16815260200190815260200160002060009054906101000a900460ff169050919050565b600160008273ffffffffffffffffffffffffffffffffffffffff1673ffffffffffffffffffffffffffffffffffffffff16815260200190815260200160002060009054906101000a900460ff16610219576040517f08c379a000000000000000000000000000000000000000000000000000000000815260040161021090610553565b60405180910390fd5b50565b60016020528060005260406000206000915054906101000a900460ff1681565b60008054906101000a900473ffffffffffffffffffffffffffffffffffffffff1673ffffffffffffffffffffffffffffffffffffffff163373ffffffffffffffffffffffffffffffffffffffff161461029457600080fd5b6000600160008373ffffffffffffffffffffffffffffffffffffffff1673ffffffffffffffffffffffffffffffffffffffff16815260200190815260200160002060006101000a81548160ff02191690831515021790555050565b600160008273ffffffffffffffffffffffffffffffffffffffff1673ffffffffffffffffffffffffffffffffffffffff16815260200190815260200160002060009054906101000a900460ff1661037b576040517f08c379a0000000000000000000000000000000000000000000000000000000008152600401610372906105bf565b60405180910390fd5b50565b60008054906101000a900473ffffffffffffffffffffffffffffffffffffffff1673ffffffffffffffffffffffffffffffffffffffff163373ffffffffffffffffffffffffffffffffffffffff16146103d657600080fd5b60018060008373ffffffffffffffffffffffffffffffffffffffff1673ffffffffffffffffffffffffffffffffffffffff16815260200190815260200160002060006101000a81548160ff02191690831515021790555050565b600080fd5b600073ffffffffffffffffffffffffffffffffffffffff82169050919050565b600061046082610435565b9050919050565b61047081610455565b811461047b57600080fd5b50565b60008135905061048d81610467565b92915050565b6000602082840312156104a9576104a8610430565b5b60006104b78482850161047e565b91505092915050565b60008115159050919050565b6104d5816104c0565b82525050565b60006020820190506104f060008301846104cc565b92915050565b600082825260208201905092915050565b7f524543495049454e545f4e4f545f494e5f57484954454c495354000000000000600082015250565b600061053d601a836104f6565b915061054882610507565b602082019050919050565b6000602082019050818103600083015261056c81610530565b9050919050565b7f53454e4445525f4e4f545f494e5f57484954454c495354000000000000000000600082015250565b60006105a96017836104f6565b91506105b482610573565b602082019050919050565b600060208201905081810360008301526105d88161059c565b905091905056fea26469706673582212201754d3056e60dd94941f2c65382d661909b3e5e426978d71edd3f8ece246e61f64736f6c634300081a0033",
  "linkReferences": {},
  "deployedLinkReferences": {}
}